:1000000000800020BD010000715400003554000044
:1000100035540000355400003554000035540000BC
:100020003554000035540000355400007154000070
:100030007154000035540000715400002554000034
:10004000715400007154000071540000715400009C
:10005000715400007154000071540000715400008C
:10006000715400007154000071540000715400007C
:10007000715400007154000071540000715400006C
:10008000715400007154000071540000715400005C
:10009000715400007154000071540000715400004C
:1000A000152B0000715400007154000071540000C1
:1000B000715400007154000071540000715400002C
:1000C000715400007154000071540000715400001C
:1000D000715400007154000071540000715400000C
:1000E00071540000715400007154000071540000FC
:1000F00071540000A95E000071540000697700008F
:1001000071540000857B00007154000071540000A0
:1001100071540000715400007154000071540000CB
:1001200071540000715400007154000071540000BB
:1001300071540000715400007154000071540000AB
:10014000715400007154000071540000715400009B
:10015000A9700000C1700000D9700000F1700000AB
:10016000715400007161000071540000715400006E
:10017000715400007154000071540000715400006B
:10018000715400007154000071540000715400005B
:10019000715400007154000071540000715400004B
:1001A000715400007154000071540000715400003B
:1001B0007154000071540000316E000010B56A4B9C
:1001C0004CF220521A804DF628121A8000BF00BF50
:1001D00005F052F94FF01062644B1A60644A08331C
:1001E0001A60644A04331A60A3F530432C3B1B6841
:1001F00013F4807F06D100225F4B1A604FF4A8529F
:10020000043B1A605D4B1B7813F0080F04D05B4B66
:100210001A7842F008021A702A22594B1A70594B68
:10022000594A9A420DD2131D584CE41A24F0030483
:1002300004340023104656495A581A500433A34236
:10024000FAD1544B544A9A4280F08980131F534983
:10025000C91A21F003011A1D1144002243F8042F8A
:100260008B42FBD17BE05A581A500433B3F5DE7F42
:10027000F9D14B4B80214B4A03F8011B9342FBD130
:10028000494B4A4A1A600A22494B1A702422A3F6A3
:10029000FF731A70A022013B1A7006331A7812F00D
:1002A000020FFBD0434B1A7812F0100FFBD1414BD9
:1002B0001A7802F00C02082AFAD103223E4B1A7077
:1002C000462201331A7001331A7812F0200FFBD046
:1002D000384B1A7812F0400FFBD04FF08272374B38
:1002E0001A60092204331A602022354B1A70063333
:1002F0001A7802F00C020C2AFAD1324A324B1A60F8
:10030000324A334B1A600722043B1A60314A03F524
:1003100051631A6062B605F071FB174B1B6813F04E
:10032000010F05D02C4805F0CFFA2C4A2C4B1A604F
:100330002C4B1B7813F0400F0AD0294B1A68274B1F
:100340009A4205D1244805F0BFFA0022244B1A60D6
:1003500009F06AF805F096F806F0A4FFFEE700231E
:10036000124821497FE700BF0E200540308004403D
:10037000823F04000100002B14D0034002D007404C
:1003800000E00740F4A2FF1F6099FF1FF7A2FF1FC4
:10039000B8DD000094E2FF1FF4A2FF1F8FE2FF1FF1
:1003A00000E400E05FE400E008ED00E00094FF1FDF
:1003B0000050064006400640044006404480044089
:1003C00000400640C010050004800440BFD4010076
:1003D00014E000E000002020F5C26555A5C3945A42
:1003E0001CE0034000F0074000000000FFFFFFFF9B
:1003F000FFFFFFFFFFFFFFFFFFFFFFFFFFFFFFFF0D
:10040000FFFFFFFFFFFFFFFFFFFFFFFFFEFFFFFFFD
:1004100010B5054C237833B9044B13B10448AFF33E
:1004200000800123237010BDF4A2FF1F0000000014
:10043000B0DD000008B5064B1BB106480649AFF316
:1004400000800648036813B1054B03B1984708BD07
:1004500000000000B0DD0000F8A2FF1FF4A2FF1FA3
:10046000000000000122014B1A70704784CDFF1F6D
:100470000122014B1A70704744CDFF1F0122014B2E
:100480001A70704718AAFF1F0122014B1A7070479B
:1004900058CFFF1F08B5024803F0A0FD08BD00BFFC
:1004A00090AFFF1F08B5024803F098FD08BD00BFDC
:1004B000A4AFFF1F10B50446034A40F8182B03F001
:1004C000B9F9204610BD00BFA8D8000010B50446F9
:1004D00006F0DEFE204610BD0F4B03604172026144
:1004E00000230372C36039B11946026942F8231030
:1004F0000133427A9A42F8DC084B1A680AB918604C
:1005000004E053690BB11A46FBE7506100234361D5
:100510008380C380704700BF88D10000D4E0FF1FF4
:10052000144B03600423437200F12803036100238A
:100530000372C3601946026942F823100133427AFC
:100540009342F8DB0C4B1A680AB9186004E053694F
:100550000BB11A46FBE75061002343618380C380DF
:10056000064B03604FF480338361C36103624362CF
:10057000704700BF88D10000D4E0FF1F88D800007A
:1005800010B504460F4B03600023437203610372EE
:10059000C3600D4B1A680AB9186004E053690BB1C7
:1005A0001A46FBE7546100236361A380E380204681
:1005B000064B40F8183B03F02DF9204601F0E8FD0A
:1005C000204610BD88D10000D4E0FF1FA8D800004D
:1005D00010B504460F4B036000234372036103729E
:1005E000C3600D4B1A680AB9186004E053690BB177
:1005F0001A46FBE7546100236361A380E380074A46
:100600002260074AA26184F82E30204603F030FDB4
:10061000204610BD88D10000D4E0FF1F30D9000073
:1006200003200038164B1B6813F0800F10D1154BB8
:100630001B786BB9144B1A68144B1B68D31AFA2B2E
:1006400006D901220F4B1A700F4B1A68104B1A6013
:10065000104B1B6813F0010F10D10A4B5B786BB97C
:10066000094B1A68094B1B68D31AFA2B06D90122C9
:10067000044B5A70044B1A68054B1A60704700BF50
:10068000D0F00F40ACB2FF1F4CDFFF1F1CAAFF1FB2
:1006900058CDFF1F90F00F4030B585B004460A4694
:1006A000124D01AB2868696803C329891980632A40
:1006B00005DD0DF10A000E4909F05CFC0DE0092A88
:1006C00005DD0DF10B000A4909F054FC05E0002A94
:1006D00003DB03A8064909F04DFC01AB03CB206006
:1006E00061601B88238105B030BD00BF90D1000040
:1006F0009CD10000F0B585B004468DB29A4B53F8FA
:10070000203093F82160994B1B5C042B00F215817B
:10071000DFE803F003527598B40026B9944B1F78B4
:10072000013FFFB203E0934B1F78013FFFB215F486
:10073000004F0CD03D4604EB84008F4B03EB800050
:10074000394603F091FC00228C4B1A7012E02BB258
:10075000BB420CDD894B1B784BB104EB8400864B0C
:1007600003EB8000002103F07FFC002502E0012262
:10077000824B1A702BB2BB42C8BF3D46012E2BB232
:1007800003EB430203EB820201AB0CBF7C497D49C2
:100790000A441068516803C312891A802AB2724B46
:1007A00053F824305B789A4204BFB7238DF80430A5
:1007B000754B1D550222C5E015F4004F09D000EB22
:1007C00080006D4B03EB8000002103F04DFC002501
:1007D0000BE02BB2642B08DD00EB8000664B03EBD3
:1007E0008000642103F040FC64255F4B53F8243003
:1007F00029B2596001A8FFF74FFF0422A2E02BB2F3
:10080000002B09DC00EB80005B4B03EB8000012137
:1008100003F02AFC01250BE02BB2642B08DD00EB72
:100820008000554B03EB8000642103F01DFC642520
:100830004D4B53F8243029B2996001A8FFF72CFFE3
:1008400006227FE028B901A829B2FFF725FF02227E
:1008500078E049B14D4B1A6801AB1068516803C389
:10086000127A1A7002226DE0494B1A6801AB1068C7
:10087000516803C3127A1A70022263E0002843D140
:1008800006295CD8DFE801F0040E5B18222C360044
:10089000404B1A6801AB1068516803C3127A1A7092
:1008A00002224FE03C4B1A6801AB1068516803C349
:1008B000127A1A70022245E0384B1A6801AB1068B0
:1008C000516803C3127A1A7002223BE0344B1A6853
:1008D00001AB1068516803C3127A1A70022231E02A
:1008E000304B1A6801AB1068516803C3127A1A7052
:1008F000022227E02C4B1A6801AB1068516803C331
:10090000127A1A7002221DE0022902D003290AD0AD
:1009100017E0264B1A6801AB1068516803C3127ABE
:100920001A7002220EE0224B1A6801AB106851685F
:1009300003C3127A1A70022204E0022202E00222A9
:1009400000E002221B4D2B6811191B682846C9B212
:10095000984701A804F0C2FD02462B685B68284650
:1009600001A9984705B0F0BD94B2FF1FA0CEFF1FAC
:10097000C0B7FF1F5CCDFF1F90AFFF1F20AAFF1F56
:1009800084C6FF1FF4BFFF1FC4BBFF1FA099FF1F3A
:10099000AC99FF1FC899FF1FCC99FF1F7C99FF1FBF
:1009A000A499FF1FA899FF1FB099FF1F7499FF1FFB
:1009B000B499FF1F08E1FF1F38B50C4B1C7884F079
:1009C000010202F001021A7004EB8405084B03EBEC
:1009D0008505284603F026FB30B1284603F034FB9A
:1009E00081B22046FFF786FE38BD00BFC4CDFF1F91
:1009F00090AFFF1F08B50378034AD15C41701846D9
:100A0000FFF778FE08BD00BFC4BBFF1F38B5044622
:100A1000264B1B5C012B1FD013B1022B30D038BDED
:100A2000234B53F82000234B1A5D43789A4202D09F
:100A3000FFF7E0FF38BD01221C4B1A55456804EB57
:100A400084001D4B03EB800029B203F00DFB204610
:100A5000A9B2FFF74FFE38BD0222144B1A54144BB3
:100A600053F820309D6800EB8000134B03EB8000AF
:100A700029B203F0F9FA2046A9B2FFF73BFE38BDD0
:100A800000220A4B1A540A4B53F8203000EB800026
:100A900093F90150084B03EB8000294603F0E4FA78
:100AA0002046A9B2FFF726FE38BD00BFA0CEFF1F2B
:100AB00094B2FF1FC4BBFF1F90AFFF1F2DE9F84387
:100AC0003E4B1C7884F0010404F001041C703C4B84
:100AD0001B5D002B70D024B93A4A1268C2F3C012D1
:100AE00003E0394A126802F001022AB1012B11D148
:100AF0000222364B1A5518E0012B12D1344B1A68DA
:100B0000344B1B68D31AB3F5487F0AD903222F4B05
:100B10001A551AE02D4B1B5D042B02D10022284BE5
:100B20001A552A4B1B5D022B0DD12046FFF76EFF95
:100B30000423264A1355224A1355254B1A68264B7F
:100B40001A60BDE8F883032B36D1244B1B7853B3CE
:100B5000234E56F8243093F8215093F8009009EB77
:100B600045094FEA4909DFF884801E4F58F82900EB
:100B70003946002201F082F809F1010958F82900EC
:100B80003946002201F07AF856F8243085F0010544
:100B900005F0010583F8215000215970124B1955B9
:100BA0002046FFF7A7FD0423054A1355074A1355AE
:100BB000074B1A68084B1A60BDE8F88344CFFF1F43
:100BC000ACB2FF1FD0F00F4090F00F4060CDFF1F80
:100BD0004CDFFF1F58CDFF1F1CAAFF1F54AFFF1F84
:100BE00094B2FF1F5BDC0E00A0CEFF1F8099FF1F99
:100BF00008B5FFF7E1FEFFF715FDFFF75FFF0022E5
:100C0000014B1A7008BD00BF18AAFF1F2DE9F003A1
:100C100000231C4618491A466426DFF86480174DE5
:100C2000DFF860C05F583C705F5878705F587A603A
:100C300053F80190C9F80860C9F80C2058F82070E2
:100C4000C9F8107055F82070C9F8147055F8207064
:100C500006FB07F7C9F81C70DCF80070C9F81870BB
:100C600089F8202089F8212001340433022CD9D1BD
:100C7000BDE8F003704700BF94B2FF1FC4B7FF1F69
:100C8000F4BBFF1F7899FF1F2DE9F047044690F849
:100C9000208090F821600778457808EB47095FFAD3
:100CA00089F92D4B1A88C7F103012C4B33F9113008
:100CB000D21A436803EB621323EAE373632BA8BFE2
:100CC0006323C360026902FB03FAA6B10023C36079
:100CD00009F10402224B53F822002249012200F0BC
:100CE000CDFF214B53F82900204B53F825105246D5
:100CF00003F02AFA13E01A4B53F829001C49012289
:100D000000F0BCFF05EB450305EB8303194A52F8DD
:100D10002900194919444FEA6A2201F0E3FA88F0E0
:100D2000010808F0010808EB470707EB86070C4BA2
:100D300053F827001149002200F0A0FF84F820801A
:100D400005EBC6150E4B53F8253023610D4B53F8B8
:100D500025306361BDE8F087B8AFFF1F54B2FF1FB5
:100D60008099FF1F5D74D1056499FF1F6CAAFF1F56
:100D70001F7CF001B899FF1F98A3FF1F5BDC0E00DA
:100D8000F4BBFF1FC4B7FF1F08B5124B1B7813F04D
:100D9000FF0F0CD0104B1868FFF776FF00230D4AA9
:100DA00013700E4A13700E4B1A680E4B1A600E4BDE
:100DB0001B7813F0FF0F0CD0074B5868FFF764FF48
:100DC0000023094A1370094A1370054B1A68084B2F
:100DD0001A6008BD84CDFF1F94B2FF1F98CDFF1F7E
:100DE0004CDFFF1F40CDFF1F44CDFF1F3CCDFF1F39
:100DF0003CCEFF1F08B5144B1968144B1B68144AEE
:100E00001268891ADA6991421CD993F8211093F873
:100E1000202082F0010202F0010220200D4B186018
:100E200002EB81020C4B53F822000C49002200F027
:100E300025FF054B1A680A4B1A600123094A1370F3
:100E4000094A137008BD00BF4CDFFF1F94B2FF1F9B
:100E500040CDFF1FC4F00F408099FF1F5BDC0E00E8
:100E6000A8ACFF1F98CDFF1FF9CDFF1F08B5154B8C
:100E70001968154B5B68154A1268891ADA6991423C
:100E80001ED993F8212093F8203003F00103002BA2
:100E900014BF0223032340200D49086003EB8202A4
:100EA0000C4B53F822000C49002200F0E7FE054BE2
:100EB0001A680A4B1A600123094A1370094A137011
:100EC00008BD00BF4CDFFF1F94B2FF1F3CCEFF1FC9
:100ED000C4F00F408099FF1F5BDC0E0004CDFF1FA4
:100EE0003CCDFF1FF8CDFF1F2DE9F043B9B004A89A
:100EF00002F090FC11A8AB49002202F0BDFBAA4C05
:100F00009DF848302371139BA3609DF850302373E4
:100F1000159B2361169B6361179BA361189BE3617B
:100F2000199B23629DF8683084F824309DF869305D
:100F300084F8253038AB53F8765D58689968C4F862
:100F40002650C4F82A00C4F82E101B7B84F83230D7
:100F500011A802F06FFC1EA82146002202F01CFA24
:100F60009DF87C308DF81430209B06939DF88430DA
:100F70008DF81C30229B0893239B0993249B0A9392
:100F8000259B0B93269B0C939DF89C308DF8343059
:100F90009DF89D308DF8353038AB53F8420D5968C7
:100FA0009A68CDF83600CDF83A10CDF83E201B7B7C
:100FB0008DF842301EA802F03DFC7C4C7C4E7D4DED
:100FC000C6E0022004F006FD8DE09DF836305F2B70
:100FD00003D1022004F0FEFC85E038A84044AA3882
:100FE000754908F0EDFF00287DD1744A07EB4703EF
:100FF00007EB8307D31938A951F8AACDD1F804E03B
:10100000886842F807C0C3F804E098600A7B1A7346
:101010006B4F384601F0FEF80F2004F0DBFC384639
:1010200001F002FC94F8008007F0B4FC314607F0B0
:1010300009FD07F0F3FE07F0ADFC294607F002FDBD
:1010400007F0ECFE5F4B43F82800384601F0E0FB68
:1010500094F8008007F09EFC294607F0F3FC07F0A7
:10106000DDFE594B43F82800384601F0A7F8C9F1D6
:101070000D094FFA89F929EAE9795FFA89F2B9F19C
:10108000080F13DC57B2C7F1090E002301A807446B
:1010900004A9194491F82600A0F14101C9B2192907
:1010A00098BF2030F85401337345F1D14AB1202163
:1010B000013AD2B238A840FA82F303F8DC1C002AC5
:1010C000F6D12278DFF808C102EB420E02EB8E0E59
:1010D0000CEB0E0701AB03CB4CF80E0079601B78CC
:1010E0003B720132227004A802F0C0FC2BA82E49EA
:1010F000002202F051F99DF8B0308DF814302D9B8C
:1011000006939DF8B8308DF81C302F9B0893309BC8
:101110000993319B0A93329B0B93339B0C939DF85D
:10112000D0308DF834309DF8D1308DF8353038AB73
:1011300053F80E0D59689A68CDF83600CDF83A107C
:10114000CDF83E201B7B8DF842302BA802F072FBBD
:101150009DF83530032B17D8277817F0800F13D15F
:101160000DF1360004F0BAF95FFA80F9A9F104082C
:101170005FFA88F804A840442430144908F020FF9E
:1011800000287FF422AF1CE707480023036183692E
:10119000C36102F06BFC04A802F04CFB39B0BDE85F
:1011A000F08300BFBCD3000030A3FF1FC0B7FF1FF8
:1011B0006666663F0AD7233CC0D3000098A3FF1F92
:1011C000BCAFFF1FF4BBFF1FC4B7FF1FC8D3000095
:1011D000F4BFFF1F70B5012829D8154B53F82040E4
:1011E000144B1E88144B33F91030F61AA36803EB26
:1011F000661626EAE676E068C0F16400636903FBE0
:1012000000F007F0CBFB0D4907F01CFC0546632EF0
:10121000B4BF3046632007F0C1FB0146284607F003
:1012200011FC07F0D5FD0128B8BF0120E06170BDB9
:1012300094B2FF1FB8AFFF1F54B2FF1F0AD7233C61
:1012400038B500220D4B1A700D4B1B780133DBB201
:10125000032B02D80A4A137002E00022084B1A70CE
:10126000074C257805F11000C0B203F0CBFF054B09
:1012700023F815002078FFF7ADFF38BD58CFFF1FCA
:10128000F0BBFF1F54B2FF1FF8B5224E224D234F73
:10129000234CFFF779FD33780BB9FFF7ABFDFFF770
:1012A00073FD2B780BB9FFF7E1FDFFF76DFD237898
:1012B00013F0FF0F01D0FFF79BFCFFF765FD194B03
:1012C0001B7813F0FF0F01D0FFF7BAFFFFF75CFDAB
:1012D000154B1B785BB1154B1A68154B1B68D31A5D
:1012E000192B04D920233B6000220F4B1A70FFF703
:1012F0004BFD104B1B78002BCBD00C4B1A680E4BC0
:101300001B68D31A192BC4D940233B600022094B18
:101310001A70BEE798CDFF1F3CCDFF1FC8F00F40ED
:1013200018AAFF1F58CFFF1FF9CDFF1F4CDFFF1F6B
:10133000A8ACFF1FF8CDFF1F04CDFF1F10B504465A
:101340000020FF2104F056F80120210A04F052F891
:101350000220E1B204F04EF810BD00BF2DE9F041CB
:1013600000213F4B19803F4B03221A705A700846E8
:10137000FFF7C0F94FF47A7004F02CFBC825002663
:101380004FF0100802241127404603F03BFF07F0FE
:1013900005FB314607F04EFA0646204604F01AFBDC
:1013A000384603F02FFF07F0F9FA314607F042FA0A
:1013B0000646204604F00EFB122003F023FF07F040
:1013C000EDFA314607F036FA0646204604F002FBF5
:1013D000132003F017FF07F0E1FA314607F02AFA6D
:1013E0000646204604F0F6FA013DCDD130461E49AE
:1013F00007F0DCFB07F012FD81B2194C21800020C0
:10140000FFF778F94FF4FA7004F0E4FA012021882C
:10141000FFF770F9002605240F25114F04E0284638
:1014200004F086FA00B996B1204604F081FA00284B
:10143000F5D14FF47A7004F0CDFA0A4B00221A70FD
:101440005A700A4B1A680A4B1A60BDE8F081388856
:10145000FFF774FF01200021FFF74CF90126E3E7B5
:10146000B8AFFF1FA0CEFF1F000048444CDFFF1F96
:101470001CAAFF1F10B5012003F0A8FF044602209C
:1014800003F0A4FF00EB042080B210BD70B5002073
:1014900003F032FE0C2003F05BFE042003F084FE18
:1014A0000220014604F052FA0020022104F04EFA14
:1014B0000520022104F04AFA0F20022104F046FA26
:1014C0001420012104F042FA1520012104F03EFA13
:1014D0001420002104F008FA1520002104F004FA79
:1014E0000D20012104F032FA20229A4B1A609A480A
:1014F0000F2105F07DFB994B1A7842F005021A7016
:101500000A2002F0B5FA80B9954C964E1C25236846
:101510005B68204631462A469847204605F0CAFEB9
:101520004FF4FA7004F056FAF1E7642004F052FA2E
:1015300040F6230004F0BCFA8B4803681B680A21BC
:1015400098470A2004F046FA884B00249C61DC612D
:101550001C625C62864B9C61DC611C625C62FFF712
:10156000C3FC8448844943F6972205F079FE8348FA
:101570008349844A05F074FE242007F07DFF824DE4
:101580002860242007F078FF68602046FFF73EFBC4
:1015900002207E49024604F037F920467C490222A7
:1015A00004F032F97B4C04202146024604F02CF969
:1015B00003202146042204F027F9774C0820214615
:1015C000042204F021F906202146042204F01CF92B
:1015D0000A2004F0FFF9052004F0AAF910B9FFF77A
:1015E000BDFE0DE0002003F0F1FEFF2804D1FFF75F
:1015F00041FF6A4B188003E040F2FF72674B1A808C
:1016000000200146FFF776F801200021FFF772F86D
:101610005D4B1D68AC692046614907F0CFFB28B9D6
:101620002046002107F0ACFB18B101E05C4C00E063
:10163000002420464FF08F4107F004FA07F0C8FB62
:101640004A4B9861AC692046554907F0B7FB28B969
:101650002046002107F094FB18B101E0504C00E057
:10166000002420464FF08F4107F0ECF907F0B0FB63
:101670003E4BD861AC692046494907F09FFB28B929
:101680002046002107F07CFB18B101E0444C00E04B
:10169000002420464FF08F4107F0D4F907F098FB63
:1016A000324B1862AC6920463D4907F087FB28B9E8
:1016B0002046002107F064FB18B101E0384C00E03F
:1016C000002420464FF08F4107F0BCF907F080FB63
:1016D000264B58622C4B5D68AC692046304907F0B8
:1016E0006DFB28B92046002107F04AFB18B101E044
:1016F0002B4C00E0002420464FF08F4107F0A2F968
:1017000007F066FB1A4B9861AC692046244907F044
:1017100055FB28B92046002107F032FB18B101E043
:101720001F4C00E0002420464FF08F4107F08AF95B
:1017300007F04EFB0E4BD861AC692046184907F004
:101740003DFB28B92046002107F01AFB58B329E0D9
:10175000134C28E084F00F400082FF1FFEE0FF1FC3
:1017600030E1FF1FD0D3000008E1FF1F58AFFF1F7B
:101770005CB2FF1F64A3FF1F8904000018CDFF1F88
:101780007D0400009FBB0D0094B2FF1F65040000A4
:101790007104000095040000A5040000B8AFFF1F0D
:1017A00000FEFF46002420464FF08F4107F04AF923
:1017B00007F00EFB0D4B1862AC6920460C4907F090
:1017C000FDFA28B92046002107F0DAFA18B101E045
:1017D000074C00E0002420464FF08F4107F032F91B
:1017E00007F0F6FA014B586270BD00BF5CB2FF1FF4
:1017F00000FEFF462DE9F84F03F0AEFDB34C204646
:1018000002F008F8DFF868832046B149424607F045
:10181000FBFDB04C2046FEF7B3FEAF4D20462946F7
:10182000424607F0F1FDAD48FEF7AAFEAB48294657
:10183000424607F0E9FDAA48FEF7A2FEA84829465D
:10184000424607F0E1FDA748FEF79AFEA548294663
:10185000424607F0D9FDA448FEF7BAFEA348FEF7BA
:10186000B7FEA348FEF7B4FEA248FEF7B1FEDFF8CC
:1018700004A3504601210AF12402FEF72DFE9E4EDC
:10188000CAF800604FF0FF35CAF818509B48012194
:1018900000F12402FEF720FE984B1E609D619848DF
:1018A000012100F12402FEF717FE954B1E609D6199
:1018B0009448012100F12402FEF70EFE914B1E60B8
:1018C0009D61DFF8B4B2584601210BF12402FEF706
:1018D00003FECBF80060CBF81850DFF8A092484622
:1018E000012109F12402FEF7F7FDC9F80060C9F8EB
:1018F00018508548012100F12402FEF7EDFD824BCE
:101900001E609D618148012100F12402FEF7E4FD83
:101910007E4B1E609D617E4F3846FEF701FE7D4E78
:101920003046FEF7FDFD7C4D2846022105F11802E8
:10193000FEF7D2FD794B2B60284600F093FB7848E8
:101940000460C0F804A0002404724472C46005F06E
:1019500041FA7448614B0360684B436004724472FF
:10196000C46005F037FA70485D4B0360644B436018
:1019700004724472C46005F02DFA6C48594B036040
:10198000604B436004724472C46005F023FA6848F7
:10199000554B0360C0F804B004724472C46005F093
:1019A00019FA6448514B0360C0F804900472447201
:1019B000C46005F00FFA60484D4B0360524B436022
:1019C00004724472C46005F005FA5C48494B036038
:1019D0004E4B436004724472C46005F0FBF95848F2
:1019E000C0F800A0476004724472C46005F0F2F9C8
:1019F0005448424B0360476004724FF0010A80F87C
:101A000009A0C46005F0E6F94F48C0F800B047608F
:101A100004724FF0020B80F809B0C46005F0DAF9E7
:101A20004A48C0F80090476004724FF0030980F8FC
:101A30000990C46005F0CEF94548314B036046601B
:101A400004724472C46005F0C5F942482D4B03602E
:101A50004660047280F809A0C46005F0BBF93E48F6
:101A6000294B03604660047280F809B0C46005F039
:101A7000B1F93A48254B03604660047280F809903A
:101A8000C46005F0A7F936480760456004724472E7
:101A9000C46005F09FF9334806604560047280F821
:101AA00009A0C46005F096F92F4D284604214A4646
:101AB00002F076FA05F114000821062202F070FA0D
:101AC0002A480470802646735AE000BF30A3FF1FE7
:101AD00035380000BCAFFF1FB5040000CCACFF1FC1
:101AE000B0B2FF1F38B5FF1F0CCEFF1FC8CDFF1FC0
:101AF00040CEFF1F70CEFF1F78D80000CCCEFF1F56
:101B0000F4CEFF1F1CCFFF1F70ACFF1F9CCDFF1F2B
:101B100058AFFF1F5CB2FF1F64CDFF1F98D80000B5
:101B20005CAAFF1FACACFF1FBCACFF1F48CDFF1F62
:101B3000FCCDFF1F2CCDFF1F88A3FF1F24AAFF1F72
:101B40009CB2FF1F98ACFF1F74C6FF1F88CDFF1FFC
:101B500008CDFF1F44B2FF1F48CFFF1F10A3FF1F78
:101B600020A3FF1F78A3FF1F90AFFF1F18CDFF1FFB
:101B70006099FF1FA4CEFF1FC8BBFF1F34AAFF1F21
:101B8000064D2946424607F03FFC0548047046735F
:101B90002946424607F038FCBDE8F88FCD04000026
:101BA00064A3FF1F2DE9F04F83B0019084693CB915
:101BB000002105F0DFF800285AD005F0A5F857E01D
:101BC000B4F1FF3F0FD10198002105F0D3F804468E
:101BD00000284DD001982146002205F0B5F8204696
:101BE00005F092F844E00198002105F0CFF8804616
:101BF00000283DD0019BD3F81CC093F8209000230F
:101C00001D4F9B464FF0FF3A4E46200EC4F30F2166
:101C100008EB0302B2F90450C1F5803E37F9109089
:101C2000013037F9100001FB00F109FB0E11091416
:101C300001FB05F1C913918026B1E243944506D218
:101C4000644407E0A44504D2CCEB040402E054460B
:101C500000E05C460233B3F5807FD6D1019B9C61E6
:101C600018464146002205F06FF8404605F04CF852
:101C700003B0BDE8F08F00BF68D6000072B683697C
:101C800013B90123836105E0B3F1FF3F04BF6FF097
:101C900001038361C16180F8202062B6704700BFF4
:101CA00010B5044605F060F9204610BD08B503489C
:101CB0000349044A07F0A8FB08BD00BF5CCFFF1F23
:101CC000A11C00006099FF1F08B503480349044A9E
:101CD00007F09AFB08BD00BF64CFFF1FA11C0000E6
:101CE0006099FF1F10B400F58074036831FB03F2A4
:101CF00031FB13F302F30F0203F30F03C2EA0343B2
:101D000040F8043B8442F0D15DF8044B704700BFBB
:101D100070B400F58076B2F5803F11D10023C2582F
:101D2000CC5892FA14F2C250C2185468CD186D689B
:101D300094FA15F454600833B3F5807FEFD112E0C4
:101D400051F8043B32FB03F532FB13F305F30F05A7
:101D500003F30F03C5EA0343046893FA14F440F84D
:101D6000044B8642ECD170BC704700BF2DE9F041B6
:101D700080460546002426466EB94046214605F0B9
:101D800005F80646A8B1A969B1F5803F11D0043025
:101D9000FFF7A8FF0DE04046214604F0EBFF0746A1
:101DA00038B1301D391DAA69FFF7B2FF384604F07B
:101DB000ABFF01340435042CDED13EB14046314640
:101DC000002204F0C1FF304604F09EFFBDE8F08120
:101DD00008B503480349044A07F016FB08BD00BFD5
:101DE0006CCFFF1FA11C00006099FF1F70B5344B22
:101DF0001A6812681979334B1970334B9A420CD216
:101E0000324B1B786BB14FF08042314B1A60314D31
:101E100005F5807405F5007508E02E4C04F5807515
:101E200004E02C4D05F5807405F500752A4B186803
:101E3000D8B12A4B198800EB4103043333F8022B45
:101E400024F8042BA542F9D840317F2902D8234B2E
:101E500019800FE00026214B1E8004F055FF204B17
:101E60001A681D490A601E6004E0002324F8043B40
:101E7000A542FBD8FE3C1B4B1868D8B11A4B1988F9
:101E800000EB4103043333F8022B24F8042BA54262
:101E9000F9D840317F2902D8134B198070BD002436
:101EA000114B1C8004F030FF104B1A680D490A607A
:101EB0001C6070BD002324F8043BA542FBD870BD14
:101EC00078CFFF1F1F8000403C92FF1F90CFFF1F65
:101ED00008E200E03C91FF1F88CFFF1F74CFFF1F77
:101EE00094CFFF1F80CFFF1F84CFFF1F8CCFFF1F1A
:101EF00010B50446002104F03DFF0146E0B172B682
:101F00001E4B1B6833B91D4B186000221C4B1A80F6
:101F100062B611E01B4A12681AB91A4B186062B611
:101F20000AE016480260174A11600021144A118025
:101F300062B6184604F0E8FE2046012104F01AFFBC
:101F40000246D0B172B6104B186828B91A60002248
:101F50000E4B1A8062B610BD0D4B1B681BB90C4BA3
:101F60001A6062B610BD08490B60094B1A60002266
:101F7000064B1A8062B604F0C7FE10BD88CFFF1F63
:101F800074CFFF1F94CFFF1F80CFFF1F84CFFF1F91
:101F90008CCFFF1F30B4254B1A6842F400421A6000
:101FA000234A116841F0020111601A6842F00202EE
:101FB0001A60204B1B68002B36DB1F4B1B68002B65
:101FC00032DB4FF086421D4B1A6047F25402043355
:101FD0001A600024A43B1C6001205C3B1860184A76
:101FE00004331A604FF4803104331960154A043306
:101FF0001A60154B154D2B60CC352C60144C2060AD
:10200000144C154804600430016014490A60144AF5
:1020100013604FF4C06302F5DF3202F5BA72136049
:10202000043213600C32136030BC70473C800440B3
:102030004080044000F0024080F0024000F1024085
:10204000030000071B0F0100000F0F0F14F00240E8
:1020500084F002400300004788F0024090F0024004
:1020600094F0024038B5314D2846012104F01EFF9E
:1020700000242F4B1C602F4B1C60FFF78BFF4FF48D
:10208000C0622D4B1A602B681A682C4A1A602B68A4
:1020900002221A715C7101219971D9711A725C72F4
:1020A0009C72DC721C736FF001025A734FF0FF32A6
:1020B0009A73DA731A69224A1A611C755C75DA8A96
:1020C0004FF48072DA821C765C769C76DC76D98B53
:1020D000DA839A8B06229A832B7903F1804303F5E6
:1020E00004331C708F221A7004F08CFE154B18708C
:1020F0002A79154B1A70154A136843F0124343F0BE
:10210000010313602A7902F110011148114B43F8C1
:10211000210053119B0003F1604303F5614302F07A
:102120001F02012101FA02F21A6038BD78CFFF1FA9
:1021300088CFFF1F80CFFF1F04B004403C91FF1FDA
:1021400020F0024090CFFF1F1B80004000F00240B3
:10215000ED1D00000094FF1F08B503480349044A21
:1021600007F052F908BD00BF78CFFF1FA11C000087
:102170006099FF1F08B503480349044A07F044F972
:1021800008BD00BF98CFFF1FA11C00006099FF1F72
:1021900010B504460C2380F87F3280F8803200238B
:1021A0004366006F18B104F0AFFD00232367606F32
:1021B00018B104F0A9FD0023636710BD38B50446CB
:1021C00072B690F87F320C2B1FD0006F002323676C
:1021D000656F63670C2384F87F3262B608B104F040
:1021E00093FD15B1284604F08FFD04F1180001F0AD
:1021F0003DFC074B1B8823B1013B9BB2044A138073
:1022000023B95E2000F082FD38BD62B638BD00BF44
:10221000A0CFFF1F30B58FB004460D46FFF7CEFFAD
:102220005E2000F059FD2E4B1A8801321A8072B6DA
:1022300001A82946002201F01FFA9DF808302377F3
:10224000039B23629DF8103084F82430059BA36221
:10225000069BE362079B2363089B6363099BA3635D
:102260009DF8283084F83C309DF8293084F83D30C2
:102270000EAB53F80E5D58689968C4F83E50C4F828
:102280004200C4F846101B7B84F84A3001A801F0D4
:10229000D1FA62B694F83D30032B0DD9104B1B8850
:1022A0002BB1013B9BB20E4A13800020ABB95E20DC
:1022B00000F02CFD002010E00023A4F87C32A4F8EC
:1022C0007A320C2284F880221422626684F87E32EC
:1022D000082384F87F320120FFE70FB030BD00BF34
:1022E000A0CFFF1F30B58FB004460D460132520219
:1022F000C0F88422FFF762FF72B601A829460022C7
:1023000001F0BAF99DF808302377039B23629DF80A
:10231000103084F82430059BA362069BE362079B80
:102320002363089B6363099BA3639DF8283084F8AB
:102330003C309DF8293084F83D300EAB53F80E5DEB
:1023400058689968C4F83E50C4F84200C4F8461072
:102350001B7B84F84A3001A801F06CFA62B694F84D
:102360003D30032B0DD9114B1B882BB1013B9BB288
:102370000E4A13800020BBB95E2000F0C7FC00208D
:1023800012E00023A4F87C32A4F87A320C2284F8FC
:1023900080221422626684F87E32012084F8820250
:1023A000082384F87F32FFE70FB030BDA0CFFF1FB6
:1023B000C36C9AB2012A2AD1026D4AF644418A427C
:1023C0000AD045F222618A4209D042F611318A428E
:1023D0001FD11349042204E01249002201E01249EE
:1023E00004221B0C012B04D0022B14D1490842F00B
:1023F0000102B0F85A30082B04D0102B0DD1490837
:1024000042F00202C16680F880220120704700205D
:10241000704700207047002070470020704700BFC1
:1024200040EE3517907BCD0520F79A0B2DE9F84F3C
:102430000446B0F87A6206447A360D46002900F068
:10244000C1814FF008090027DFF890B3DFF890A3AF
:1024500002E0002D00F0B98194F87F320C2B00F2DD
:10246000A981DFE813F0B501B501E8003601B50137
:10247000B501B501B5010D004F007F00CC00B501DD
:10248000636E9D4234BFA846984604F14C0094F810
:102490007E3218443146424602F086FC94F87E3281
:1024A000434484F87E32B4F87A324344A4F87A3252
:1024B000636EC8EB03036366002B40F09381E36C0B
:1024C000534540F07781636DC34A934240F0728177
:1024D000A36D02F15B4202F5F11202F60F42934244
:1024E00040F06881E36DA3F11002082A00F26281D6
:1024F0004644C8EB0505636684F87E72092384F8B8
:102500007F32A6E7636E9D4234BFA846984604F129
:102510004C0094F87E3218443146424602F044FCA6
:1025200094F87E32434484F87E32B4F87A324344DD
:10253000A4F87A32636EC8EB03036366002B40F0A5
:1025400054812046FFF734FF002800F033814644D1
:10255000C8EB0505C4F8649084F87E720A2384F8F9
:102560007F3276E7636E9D4234BFA846984604F1F9
:102570004C0094F87E3218443146424602F014FC76
:1025800094F87E32434484F87E32B4F87A3243447D
:10259000A4F87A32636EC8EB03036366002B40F045
:1025A00027814644C8EB0505236D6366E36C5B45F4
:1025B00021D194F8823263B104F11800D4F8841266
:1025C00001F028FA84F88272626ED4F88432D31A49
:1025D000636684F8817294F8803284F87F3213F055
:1025E000010F05D004F034FB6067002800F0038180
:1025F000636EA3662DE70B2384F87F3229E7636EB1
:10260000AB4209D95B1B6366B4F87A321D44A4F867
:102610007A520020BDE8F88F1E44ED1AB4F87A22F1
:102620001344A4F87A32C4F8649084F87E720A23C2
:1026300084F87F320DE7636E9D4228BF1D465B1B09
:102640006366023616F8021C16F8010C023D226F72
:10265000B4F8783003F1010CA4F878C002EB43031E
:1026600041EA00229A80B4F878307F2B24D92046A2
:10267000216F002204F068FB2046216F012204F044
:1026800063FB206F04F040FB00232367636E1D444F
:10269000656604F17A03F71AA4F87A72606F08B1DC
:1026A00004F032FB636E002B40F0A8800C2384F80A
:1026B0007F320120BDE8F88F0236002DC2D1636E53
:1026C000002B40F09E800C2384F87F320020BDE870
:1026D000F88F636E9D4228BF1D465B1B636694F8AE
:1026E000813243B1236FB4F8782003EB4202E36CEC
:1026F000938019E03E4633787278023D0BD1616ECB
:10270000002951D043EA0223E364022384F8813292
:102710000020BDE8F88F0236216FB4F8780001EB95
:10272000400143EA02238B80374617F8021B70787A
:10273000023D626FB4F878305E1CA4F8786002EB5A
:10274000430341EA00229A80B4F878307F2B22D9E3
:102750002046216F002204F0F7FA206F04F0D4FA2B
:10276000002626672046616F012204F0EDFA606FB3
:1027700004F0CAFA6667636E1D44656604F17A0365
:10278000FF1AA4F87A72002D3ED10C2384F87F3210
:102790000120BDE8F88F002DACD1636E23B100207D
:1027A00084F88102BDE8F88F0C2384F87F32002082
:1027B000BDE8F88F0C2384F8803284F87F32002043
:1027C000BDE8F88F0020BDE8F88F0020BDE8F88F45
:1027D0000020BDE8F88F00BF574156456461746121
:1027E000524946460020BDE8F88F0020BDE8F88F2A
:1027F0000020BDE8F88F0020BDE8F88F0120BDE87B
:10280000F88F0020BDE8F88F0120BDE8F88F00BFE9
:1028100090F87F32072B05D8C36E826EA2FB03238C
:10282000184670470020704790F87F32072B94BFFE
:10283000806E0020704700BF2DE9D847044690F80D
:102840007F320C2B00F0AD8004F002FA20670028E4
:1028500000F0A78094F87F32072B0BD813F0010FFC
:1028600008D004F0F5F9606730B9206F04F04CFA35
:10287000BDE8D887002363670023A4F87830B4F854
:102880007C12B4F87A32C91A002905DD2046FFF718
:10289000CDFD002840F0858094F87F320C2B2CD0A1
:1028A00004F11806304600F0A5FF30B304F17A08B1
:1028B0004FF400774FF00009304641463A4600F0A9
:1028C000BFFF83B2A4F87C32BBB1A4F87A9294F82B
:1028D0007FA220461946FFF7A9FD20B194F87F3268
:1028E0000C2B5ED109E094F87F320C2B05D0BAF1A5
:1028F000070F16D9072BDFD913E004F1180001F0F8
:10290000B5F8294B1B8823B1013B9BB2264A1380A3
:1029100013B95E2000F0FAF90C2384F8803284F8B1
:102920007F32236F1BB3B4F87820DAB113467F2AC5
:1029300007D80021226F02EB430291800133802BE4
:10294000F8D12046216F002204F0FEF994F87F327E
:10295000072B07D813F0010F04D12046216F012265
:1029600004F0F2F9206F04F0CFF900232367636FBE
:10297000BBB1B4F878207AB113467F2A07D800217A
:10298000626F02EB430291800133802BF8D1204625
:10299000616F012204F0D8F9606F04F0B5F90023EB
:1029A0006367BDE8D88700BFA0CFFF1F0B4B1B7824
:1029B00013B90B4B1B7873B10A4B1B78202B03D92F
:1029C0000123037100207047581C064A1070064A04
:1029D000D154012070470020704700BF0AD0FF1F6C
:1029E000CCCFFF1F0BD0FF1FA8CFFF1F704700BF2A
:1029F000024B1878024B1B78C01A704709D0FF1F92
:102A000008D0FF1F074B1B78074A12789A4205D956
:102A1000591C044A1170054AD05C70474FF0FF30D2
:102A2000704700BF08D0FF1F09D0FF1FD0CFFF1F86
:102A3000054B1B78054A12789A4286BF044AD05C3F
:102A40004FF0FF30704700BF08D0FF1F09D0FF1FB5
:102A5000D0CFFF1F08B5104BDB7813F0200F0CD13F
:102A6000122002F019FF0D4B1B689BB100210C4A8C
:102A700011700C4A1078984708BD0B4A137801333F
:102A8000DBB21370012B02D8084B1B7813B912204C
:102A900002F002FF08BD00BF00600640A4CFFF1F88
:102AA00008D0FF1F09D0FF1FF4CFFF1FCCCFFF1F9F
:102AB00038B514460D4B1B7813B90D4B1B7893B1E9
:102AC0000C4B1D78C5F12103A34202D201220271F1
:102AD0001C4609482844224602F066F92544054B65
:102AE0001D70204638BD002038BD00BF0AD0FF1F32
:102AF000CCCFFF1F0BD0FF1FA8CFFF1F00220271FA
:102B00004FF47A7181600273014A0260704700BF1E
:102B1000B8D8000008B53D4BDB78DBB213F0100FDE
:102B200006D01021394AD17013F0400F03D108BDEF
:102B300013F0400F2CD013F0040F1BD00023344AA5
:102B40001370344A1370344B1B681BB19847314BD8
:102B50001B782BB901222F4B1A7000222F4B1A70B1
:102B60002A4BD0229A702D4A12781A7101222C4BCE
:102B70001A7009E00122264B1A700022294B1A70A4
:102B8000224BC0229A701B790222204BDA7008BDBA
:102B90001E4A927812F0100F1CD013F0010F14D1BE
:102BA0001F4B1B781B4A12789A4207D9591C1C4AA2
:102BB00011701A4AD25C154B1A7102E00022134BB5
:102BC0001A71D022114B9A701BE0104BC0229A70E0
:102BD0001B7916E00022144B1A70122013490322AD
:102BE00002F012FE094B1B79DAB20E4B1B781F2B39
:102BF00007D80749097821B1581C0A4908700C49BF
:102C0000CA540222014BDA7008BD00BF00600640C2
:102C1000A2CFFF1F0BD0FF1FF0CFFF1FA8CFFF1FBA
:102C20000CD0FF1F09D0FF1FF4CFFF1F552A000053
:102C3000D0CFFF1F08B50248FFF760FF08BD00BFF7
:102C4000F8CFFF1F184B1A6842F480521A60174BD6
:102C5000174A1A60174ADA6002F180421A61164A6E
:102C60001A60164B1B7813F0010F07BF4FF4107258
:102C7000134B4FF40072134B1A60104B1B7813F078
:102C8000020F4FF400720CBF0F4B104B1A600B4B2E
:102C90001B7813F0040F07BF4FF410720C4B4FF466
:102CA00000720C4B1A6070473C80044000C0024028
:102CB00001401F000110003800001F80FEE0FF1FD0
:102CC00018B0044008C004401CB004400CC00440CC
:102CD00014B0044004C0044030B45E2810D8430946
:102CE000084A012101FA03F514782C431470064AAE
:102CF00000F01F00814052F823400C4342F823406B
:102D000030BC704728D0FF1F10D0FF1F5E2815D899
:102D1000430900F01F00012202FA00F0084A52F8AD
:102D2000231021EA000042F8230038B9054A0121A6
:102D300001FA03F3117821EA03031370704700BF0F
:102D400010D0FF1F28D0FF1F0368BBB100290BDD87
:102D500072B6036893F805221144FF29A8BFFF212A
:102D600083F8051262B6704772B6036893F80522BD
:102D7000114421EAE17183F8051262B6704700BF81
:102D800003684BB172B6036893F80422013A83F8E2
:102D9000042262B600230360704700BF10B40368CA
:102DA00053B1D3F800228A421CD093F80422013A8E
:102DB00083F80422002303600C4B03F6386493F875
:102DC000062252B1D3F800228A4206D1036093F85A
:102DD0000422013283F8042204E003F50273A342C3
:102DE000EDD3002318465DF8044B70472CD0FF1F2D
:102DF00070B50D461646364B1B78002B28D072B6A0
:102E0000334B1B7813F0010F07D0324B1968324A4D
:102E100012680A4031490A601A602D4B1B7813F082
:102E2000020F07D02E4B19682B4A52680A402B49D3
:102E30004A601A60264B1B7813F0040F07D0294B09
:102E40001968254A92680A4024498A601A6062B665
:102E5000254BDA68254B9A4209D0234B244A1A6045
:102E6000224ADA6002F180421A61224A1A60294637
:102E7000FFF794FF044628B92846314600F0D4F9FC
:102E8000054600E00125124B1B78C3B113F0010F7A
:102E900003D0124B1A68184B1A600D4B1B7813F0B5
:102EA000020F03D00D4B5A68144B1A60084B1B7865
:102EB00013F0040F03D0094B9A68114B1A602CB120
:102EC000304621464FF4007201F06EFF284670BD77
:102ED00028D0FF1F80E100E010D0FF1F1CD0FF1F93
:102EE00084E100E088E100E000C00240000001B899
:102EF00001401F0000001F8000E100E004E100E04D
:102F000008E100E010B40C4BFF24002003F6386108
:102F100093F8042232B993F80522A24202D232B1C8
:102F20001446184603F502738B42F1D300E01846AD
:102F30005DF8044B704700BF2CD0FF1F2DE9F04116
:102F400004460D4617463F4B1B78002B28D072B61F
:102F50003C4B1B7813F0010F07D03B4B19683B4AE1
:102F600012680A403A490A601A60364B1B7813F01F
:102F7000020F07D0374B1968344A52680A40344967
:102F80004A601A602F4B1B7813F0040F07D0324BA6
:102F900019682E4A92680A402D498A601A6062B602
:102FA0002E4BD9682E4B994209D02C4B2D4A1A60D2
:102FB0002B4ADA6002F180421A612B4A1A602046DD
:102FC0002946FFF7EBFE0646E0B92046FFF79AFFD9
:102FD0008046A0B106462846414600F025F980B15A
:102FE000C4F80080C8F80052012388F8043217B9E9
:102FF00088F8063206E0052388F8063202E000264B
:1030000000E000260F4B1B78C3B113F0010F03D073
:103010000F4B1A68154B1A600A4B1B7813F0020FFE
:1030200003D00B4B5A68124B1A60064B1B7813F0F7
:10303000040F03D0064B9A680E4B1A603046BDE869
:10304000F08100BF28D0FF1F80E100E010D0FF1FFB
:103050001CD0FF1F84E100E088E100E000C00240D6
:10306000000001B801401F0000001F8000E100E0E7
:1030700004E100E008E100E01B4B1B68012283F83B
:1030800000211A4B4FF00042DA62020A5A631A46D4
:10309000D36A002BFCDA154B9A6B4FF00042DA62D0
:1030A0000A0C42F080525A631A46D36A002BFCDAAB
:1030B0000E4B9A6B4FF00042DA6289B241F08051B8
:1030C00059631A46D36A002BFCDA084B9A6B4FF00F
:1030D0000042DA62C0B258631A46D36A002BFCDAA7
:1030E000024B9B6B704700BF64DEFF1F00C00240B5
:1030F00030B40921094A4FF00045FF24D5625463DA
:10310000D36A002BFCDA906B10F0800F03D04B1EBB
:1031100013F0FF01F2D1C0B230BC704700C00240D2
:103120000D4B4FF00042DA620C4A5A631A46D36ADA
:10313000002BFCDA084B986B00044FF00042DA6277
:10314000064A5A631A46D36A002BFCDA024B9B6B81
:103150009BB21843704700BF00C00240FFFF001041
:10316000084B1B68012283F88020074B4FF0004278
:10317000DA62FF225A631A46D36A002BFCDA024B4A
:103180009B6B704764DEFF1F00C0024010B544F225
:1031900095000021FFF770FFFFF7AAFF0446FFF735
:1031A000DFFF204610BD00BF10B544F687004FF486
:1031B000D571FFF761FFFFF79BFF012818BF4FF0A4
:1031C000004403D1FFF7ACFF0446FFE7FFF7C8FF59
:1031D000204610BD10B5044647F2FF700021FFF7EE
:1031E0004BFFFFF785FFFFF7BBFF46F6FF102146B9
:1031F000FFF742FFFFF77CFF0446FFF7B1FF2046D1
:1032000010BD00BF10B547F6FF200021FFF734FFC7
:10321000FFF76EFF18B9FFF783FF044600E00024B4
:10322000FFF79EFF204610BD70B503460D46324A9B
:103230001278012A98BF430245F2FF101946FFF7A2
:103240001BFFFFF755FF18B1FFF78AFF002070BD85
:103250002A4A4FF00044FF20D4625063D36A002B07
:10326000FCDA936BDBB2FE2B05D0FF2BF4D0FFF71B
:1032700077FF002070BD05F5FF76204B204A5A638A
:103280005A63B54213D2A81C05F500751A461C4CAA
:10329000D36A13F0F00FFBD05463936B190A00F854
:1032A000021C00F8013C0230A842F1D100E02E4699
:1032B000124AD36A13F0F00FFBD0104B9B6B1A0A23
:1032C000327073700D4AD36A13F0F00FFBD00B4BC2
:1032D0009A6B0C4A1268012182F880104FF000426C
:1032E000DA62FF225A631A46D36A002BFCDA034BD8
:1032F0009B6B012070BD00BF68DEFF1F00C0024055
:10330000FFFF001064DEFF1F10B400230361CB69D0
:1033100043618A8A4B8B43EA02438361C361CB7A60
:1033200003F01003DBB2002B0CBF0023022380F854
:1033300025300A78202A08BF00F1260308D020E0B3
:1033400014F8012F202A03D003F8012B8342F7D170
:103350000A7A202A12D02E221A700A7A5A704A7AD1
:10336000202A02D1981C093102E0D81C0A319A7037
:103370000A78202A1ABF431C0270034600221A70E2
:1033800006E000F1270380F826200C462E30D7E710
:103390005DF8044B704700BF2DE9F04F87B08246BF
:1033A0000D46144600F036FA002C40F0A38095F844
:1033B0002530032B08D12B695C0AAB69E318019314
:1033C0006B695B0A039318E0022B40F093804B4B30
:1033D0001B7803F10900012202FA00F00138296983
:1033E00001404C0AE969023901FA03F044490968CD
:1033F0000144214401919A4003922E69C6F3431679
:10340000DFF800B1DFF80091CDF808A0A246002255
:1034100006A840F8042D0199FFF790FD00285BD025
:1034200000EB46173C4607F50077A7EB46174FF031
:103430000B08E37A0F2B29D02378002B4FD0E52BF4
:1034400024D020464946424606F0BAFAF0B120465A
:103450005946424606F0B4FAC0B1DDF808A050461D
:103460002146FFF751FF05A8FFF78AFC2B6920339F
:103470002B61224A12780932012101FA02F2013A43
:103480001A422ED1284600F067F92AE02B69203332
:103490002B612034BC42CCD105A8FFF771FC0AF1A6
:1034A000010A039B534512D895F82530032B1CD0F5
:1034B000284600F051F9C0B1EB69023B0F4A12787F
:1034C00093400F4A12689A1801924FF0000A05A81B
:1034D000FFF756FC00269AE7DDF808A001E0DDF8CA
:1034E00008A005A8FFF74CFC04E0DDF808A005A83B
:1034F000FFF746FC504607B0BDE8F08F74DEFF1FB3
:1035000070DEFF1FDCD80000D0D800002DE9F04F9E
:1035100087B0064691460B784BB99FE011F8013F02
:1035200063B99CE002F8011B9A42FBD321E003AA95
:1035300005A820240DF1150C0DF117052E2B0BD12C
:10354000824214D2134603F8014B8342FBD1531C31
:10355000C3EB0C031A440AE07E2B08D8A3F16107E1
:10356000FFB2192F9CBF203BDBB213700132AA427D
:10357000D4D396F82530032B05D1D6F818B073694B
:103580005B0A01930EE0022B64D1B269F261384B01
:103590001B78023A02FA03FB364A1268934401226E
:1035A0009A4001920021009101278A4639E006A83D
:1035B00040F810AD59465246FFF7C0FC044648B3E8
:1035C00055464FF00B08204603A9424606F0F8F98D
:1035D00028B948462146FFF797FE01241DE02378CD
:1035E0003FB10BB1E52B05D1C9F820B089F82450C3
:1035F00057468BB133692033336120340135102DA8
:10360000E1D10BF1010B02A8FFF7BAFB009A0132DE
:10361000009206E0002400E0002402A8FFF7B0FBBF
:1036200021E0009B01998B42C1D396F82530032BF2
:1036300012D0304600F090F80446A0B1F369023B86
:103640000B490A7803FA02FB0A4A13689B44CDF837
:1036500000A0E6E7002406E0002404E003AA2021FD
:103660000DF117035EE7204607B0BDE8F08F00BFFD
:1036700074DEFF1F70DEFF1FF0B58FB004460F46EB
:103680001646324B1A798DF808209A6803921A7BF5
:103690008DF810202E4A01921A6905925A690692F5
:1036A0009D690795DD6908951D6A099593F82420A1
:1036B0008DF8282093F825208DF8292053F8265FCF
:1036C00059689A68CDF82A50CDF82E10CDF83220DE
:1036D0001B7B8DF8363000F09DF8002E30D1384637
:1036E0001C4906F06DFC30BB184B1A7922719A68A0
:1036F000A2601A7B22731A6922615A6962619A690F
:10370000A261DA69E2611A6A226293F8242084F8DD
:10371000242093F8252084F8252053F8265F586844
:103720009968C4F82650C4F82A00C4F82E101B7BF0
:1037300084F8323004E001A839462246FFF7E6FE5D
:1037400001A800F077F820460FB0F0BD78DEFF1F2B
:10375000F0D80000BCD3000030B583B0044600238D
:103760000193174B1968C569164B1B78102B0AD1AA
:1037700001A801EB15210122FFF7E0FBB0B1EDB28A
:1037800030F815300AE001A801EBD5110122FFF74E
:10379000D5FB68B105F07F0550F82530E3610A4A92
:1037A0001468A3428CBF0024012402E0002400E03E
:1037B000002401A8FFF7E4FA204603B030BD00BFA3
:1037C000ACDEFF1FB0DEFF1FB4DEFF1F10B582B0FE
:1037D00002AB03F8011D0268546819460122A04794
:1037E00002B010BD90F82530012B1CBF01230371DE
:1037F0000020704790F82530012B07D803694069F5
:10380000C01A0028B8BF6FF0004070470020704712
:10381000704700BF002202714FF47A718160027319
:1038200003490160042180F8251080F826207047A4
:10383000F0D80000014B0360704700BFF0D80000D3
:103840002DE9F04F83B00646884690F82530012BCD
:1038500000F2B08003694169C91A8A4234BF9146B7
:103860008946B9F1000F00F0A780564A127802F19C
:103870000901012000FA01F101390B40F1698C1EA8
:103880009440514A1068044404EB5324C3F30805E0
:10389000002D45D0002202A840F8042D2146FFF754
:1038A0004DFB014658B3C5F5007BCB450DD94046CD
:1038B00029444A4601F078FA33694B44336101A840
:1038C0000121FFF741FA4D461AE0404629445A4685
:1038D00001F06AFA33695B44336101A84FF0FF31AC
:1038E000FFF732FA01A8FFF74BFA0134354B1B788A
:1038F000012202FA03F3013B1C420BD104E0002534
:1039000001A8FFF73DFA58E03046FFF725FF08B958
:103910005D4652E0CB4501D2D84403E05D464CE021
:103920004FF0000BCBEB09075D46CBEB080BDFF844
:1039300094A00BEB050800230193B7F5007F13D289
:1039400001A821461A46FFF7F9FA014628B3404676
:103950003A4601F029FA33693B44336101A8012159
:10396000FFF7F2F94D4618E001A821464246FFF75D
:103970003FFA90B1336903F50073336105F50075C3
:1039800001A8FFF7FDF901349AF80030012202FA8C
:1039900003F3013B1C4208D103E001A8FFF7F0F953
:1039A0000BE03046FFF7D8FE38B1A7F50077A94500
:1039B000BFD802E0002500E00025284603B0BDE89E
:1039C000F08F00BF74DEFF1F70DEFF1F00B583B0F5
:1039D0000DF107010122FFF733FF01280CBF9DF80D
:1039E00007004FF0FF3003B05DF804FB70B582B004
:1039F00004460669C5690DF107010122FFF720FFA2
:103A0000012803BF2661E5619DF807004FF0FF30F4
:103A100002B070BDF8B505460E4690F82530012B72
:103A20001DD843698B421CD3C7690F4B1B780933E0
:103A300021FA03F4026922FA03F3E31A52BF1C4687
:103A40008369C36144B12846FFF786FE034608B97F
:103A5000EF6107E0013CF6D12E61012302E0002373
:103A600000E000231846F8BD74DEFF1F704700BF5A
:103A70002DE9F04F83B07A4D7A4B53F830302B60FC
:103A80000124794B1C70214601F060FF2B6883F8FC
:103A90008040FFF7D7F8754B1B78002B28D072B603
:103AA000724B1B7813F0010F07D0714B1968714AE4
:103AB00012680A4070490A601A606C4B1B7813F058
:103AC000020F07D06D4B19686A4A52680A406A496A
:103AD0004A601A60654B1B7813F0040F07D0684BDF
:103AE0001968644A92680A4063498A601A6062B63B
:103AF000644BDA68644B9A4209D0624B634A1A609D
:103B0000614ADA6002F180421A61614A1A60052155
:103B10005C4A4FF000445F48D4625063D36A002B84
:103B2000FCDA936B4B1E13F0FF01F5D15A4B1D6865
:103B30004E4CDFF87491DFF86CA1DFF844814F4FF1
:103B40004B4EFFF723FB012855D02378B3B113F078
:103B5000010F03D0484B1A68504B1A60237813F0BA
:103B6000020F03D0444B5B68CAF80030237813F08F
:103B7000040F03D0404B9B68C9F80030464B1B68CC
:103B80005B1BFA2B00F2B981237823B372B623783A
:103B900013F0010F06D03268364B1B681340364ACB
:103BA00013603360237813F0020F06D03A68314B6C
:103BB0005B681340304A53603B60237813F0040F76
:103BC00008D0D8F800202B4B9B6813402A4A9360FA
:103BD000C8F8003062B62B4BDA682B4B9A42B0D053
:103BE000284B2A4A1A60284ADA6002F180421A6198
:103BF000274A1A60A5E7FFF7D7FAB0F1004F04D1C2
:103C00000122274B1A70002550E0B0F5D57F05D171
:103C10000222234B1A704FF0804547E0134B1B786C
:103C2000002B00F06C8113F0010F03D0124B1A68C7
:103C30001A4B1A600D4B1B7813F0020F03D00E4B7A
:103C40005A68184B1A60094B1B7813F0040F00F0E8
:103C50005881094B9A68144B1A60002456E100BF42
:103C600064DEFF1F60D9000069DEFF1F28D0FF1F40
:103C700080E100E010D0FF1F1CD0FF1F84E100E0B6
:103C800088E100E000C00240000001B801401F00D0
:103C900000001F80FFFF00104CDFFF1F00E100E06D
:103CA00068DEFF1F04E100E008E100E0994B1E68B8
:103CB000994CDFF890A2DFF888B2DFF8A492DFF821
:103CC000A482964F2846FFF785FA024600285CD06A
:103CD0002378B3B113F0010F03D0914B1968914BC6
:103CE0001960237813F0020F03D08D4B5B68CBF87B
:103CF0000030237813F0040F03D0894B9B68CAF877
:103D00000030012A00F2FF80824B1A68921B40F2B9
:103D1000DC539A4200F2F980237833B372B62378E9
:103D200013F0010F06D03A687F4B1B6813407C4AA2
:103D300013603B60237813F0020F08D0D8F80020FE
:103D4000794B5B681340764A5360C8F8003023789B
:103D500013F0040F08D0D9F80020734B9B68134070
:103D60006F4A9360C9F8003062B6704BDA68704BE6
:103D70009A42A7D06D4B6F4A1A606D4ADA6002F121
:103D800080421A616C4A1A609CE76C4B1B78022BCC
:103D900007D1FFF737FA800F032802D10322674BC0
:103DA0001A705D4B1B78C3B113F0010F03D05C4B4D
:103DB0001A685C4B1A60584B1B7813F0020F03D043
:103DC000574B5A685E4B1A60534B1B7813F0040F25
:103DD00003D0534B9A685B4B1A60002202A840F84C
:103DE000042D1146FFF7AAF8B0F8FE214AF6552334
:103DF0009A4273D190F8C2310B3BDBB2012B94BFD6
:103E0000D0F8C641002401A8FEF7BAFF01A8214658
:103E10000022FFF793F8B0F8FE214AF655239A42A4
:103E20005ED1B0F80B30B3F5007F5BD1037C022B81
:103E30005AD1C289002A59D0467BB6FA86F6C6F115
:103E40001F06414B1E70C38A03B9436AB0F8115074
:103E500005F11F0E4FEA5E1EB0F8131001B9016A9A
:103E600014443A4F3C601F19DFF8FCC0CCF80070D6
:103E700007EB030C364FC7F800C08A1ACEEB0202DC
:103E8000A2EB4303F340591C324A116040F6F4722E
:103E900093422DD94FF6F47293420AD810222E4B3A
:103EA0001A702E4B6D015D619C61032283F8252001
:103EB0000AE02022284B1A70284B00225A61C26A5D
:103EC0009A61022283F82520244B9A69DA61002244
:103ED0001A6101A8FEF754FF01240AE0002408E05B
:103EE000002406E0002404E0002402E0002400E0B6
:103EF000002401A8FEF744FF08E0002406E00024A7
:103F000004E0002402E0002400E00024204603B086
:103F1000BDE8F08F4CDFFF1F28D0FF1F80E100E0DD
:103F20001CD0FF1F00E100E010D0FF1F00C00240C6
:103F3000000001B801401F0000001F8068DEFF1F65
:103F400004E100E008E100E074DEFF1FACDEFF1FCB
:103F500070DEFF1FB4DEFF1FB0DEFF1F78DEFF1F25
:103F600088E100E084E100E06CDEFF1F10B5054C45
:103F70002046FFF74FFC20460349044A05F044FA67
:103F800010BD00BF78DEFF1F353800006099FF1FAD
:103F9000014A024B1A60704703200038B8DEFF1F49
:103FA00038B504460025C5600B4B0361417282722F
:103FB0000846022101F0CAFCA07A022101F0C6FCE9
:103FC000607A012101F090FCA07A012101F08CFCC3
:103FD0002572204638BD00BF19FCFFFF38B50446E6
:103FE000807A01F0A5FC0546607A01F0A1FC40EA68
:103FF0004500C0B2237A03F00F0300EB8303084AA5
:10400000D35C237203F03003102B03D1E368013338
:10401000E36038BD202B02D1E368013BE36038BD8B
:1040200008D90000C26803699A420AD0C268934264
:10403000B4BF01234FF0FF330360C3680361012065
:1040400070470020704700BF436853B1C26892FBBD
:10405000F3F003FB1020184490FBF3F203FB120073
:104060007047C068704700BFC1600161704700BF02
:1040700070B50A20012101F069FC0A20012101F03C
:1040800033FC234D2B7823F0020343F005032B7000
:10409000204B1A6842F480521A601F4C1F4B236059
:1040A0004FF03843E3604FF0784323611C4E1D4BC3
:1040B0009B6E33600D20012101F048FC3368012222
:1040C0001A700022184B1A70184B23602B7813F0CB
:1040D000010F07BF4FF41072154B4FF40072154BD0
:1040E0001A600B4B1B7813F0020F4FF400720CBFD9
:1040F000114B124B1A60064B1B7813F0040F07BFCD
:104100004FF410720E4B4FF400720E4B1A6070BDDC
:10411000FEE0FF1F3C80044000C0024001401F80C1
:1041200000E1FF1F60D9000004E1FF1F000C1F80A9
:1041300018B0044008C004401CB004400CC0044047
:1041400014B0044004C0044070B504460E46154641
:104150005E20FEF7C1FD814B1A8801321A8072B6CB
:10416000C6F307427E4B1B78190473B141F010432C
:1041700043F4306313437B494B630A46D36A03F429
:104180007043B3F5405FF9D812E0774B1B6800210C
:10419000197074494FF08053CB62134343F430637A
:1041A0004B630A46D36A03F47043B3F5405FF9D812
:1041B0006B4B1B781A046BB142F01042B3B21A4336
:1041C000684B5A631A46D36A03F47043B3F5405FF1
:1041D000F9D812E0644B1B6800221A70614B4FF053
:1041E0008052DA62B2B242F080525A631A46D36AFF
:1041F00003F47043B3F5405FF9D8594B1B781A04A8
:104200005BB142F00042574B5A631A46D36A03F43B
:104210007043B3F5405FF9D80FE0534B1B680022A1
:104220001A70504B4FF08051D9625A631A46D36AC4
:1042300003F47043B3F5405FF9D84A4AD36A13F0E8
:10424000F00FFBD0474B9B6B464AD36A13F0F00F3D
:10425000FBD0444B9B6B434AD36A13F0F00FFBD067
:10426000404B9B6B3E4B1B781A045BB142F01042F3
:104270003C4B5A631A46D36A03F47043B3F5405F6C
:10428000F9D80FE0384B1B6800221A70354B4FF0FD
:104290008052DA625A631A46D36A03F47043B3F564
:1042A000405FF9D82E4B1B781A045BB142F0805264
:1042B0002C4B5A631A46D36A03F47043B3F5405F3C
:1042C000F9D813E0284B1B6800221A70254B4FF0D9
:1042D0008052DA624FF0C0525A631A46D36A13F022
:1042E000805FFBD0204B1B6801221A700023A3853E
:1042F000043626621B4AD36A13F0F00FFBD0194B29
:104300009A6B52BA62621946CB6A13F0F00FFBD077
:10431000144B9B6B03F47F4142EA012203F003013B
:1043200084F82E10C3F3C013A36294F82E30DBB2CE
:10433000012B07D094F82E30DBB2022B14BF0523DB
:10434000062300E007239D40AA429CBF22FA03F502
:104350009D40E561521B626262B670BDA0CFFF1F37
:1043600004E1FF1F00C0024000E1FF1F08B572B664
:10437000002380F82F30C36190F82E3013F0FF0F28
:104380000FD0002380F82E3062B6074B1B8823B174
:10439000013B9BB2044A138023B95E20FEF7B6FCB2
:1043A00008BD62B608BD00BFA0CFFF1F2DE9F04FCA
:1043B00083B0044690F82F3013F0FF0F40F0F084E4
:1043C00090F82E3003F0FF05002B00F0E98402F096
:1043D0003FFC0190002800F0E384E269A36A9A4060
:1043E000236AD118C1F30742A54B1B78180473B197
:1043F00040F0104343F430631343A2484363024642
:10440000D36A03F47043B3F5405FF9D812E09E4BD2
:104410001B68002018709B4B4FF08050D8620243FD
:1044200042F430625A631A46D36A03F47043B3F518
:10443000405FF9D8924B1B781A046BB142F01042DE
:1044400089B20A438F4B5A631A46D36A03F4704306
:10445000B3F5405FF9D812E08B4B1B6800221A704D
:10446000884B4FF08052DA628AB242F080525A632F
:104470001A46D36A03F47043B3F5405FF9D8804B12
:104480001B781A045BB142F000427E4B5A631A4615
:10449000D36A03F47043B3F5405FF9D80FE07A4B69
:1044A0001B6800221A70774B4FF08051D9625A6313
:1044B0001A46D36A03F47043B3F5405FF9D8714AE2
:1044C000D36A13F0F00FFBD06E4B9B6B6D4AD36A2F
:1044D00013F0F00FFBD06B4B9B6B6A4AD36A13F05F
:1044E000F00FFBD0674B9B6B654B1B781A045BB1DD
:1044F00042F01042634B5A631A46D36A03F4704386
:10450000B3F5405FF9D80FE05F4B1B6800221A70CB
:104510005C4B4FF08052DA625A631A46D36A03F456
:104520007043B3F5405FF9D8554B1B781A045BB163
:1045300042F01042534B5A631A46D36A03F4704355
:10454000B3F5405FF9D80FE04F4B1B6800221A709B
:104550004C4B4FF08052DA625A631A46D36A03F426
:104560007043B3F5405FF9D8454B1B781A045BB133
:1045700042F01042434B5A631A46D36A03F4704325
:10458000B3F5405FF9D80FE03F4B1B6800221A706B
:104590003C4B4FF08052DA625A631A46D36A03F4F6
:1045A0007043B3F5405FF9D8354B1B781A045BB103
:1045B00042F01042334B5A631A46D36A03F47043F5
:1045C000B3F5405FF9D80FE02F4B1B6800221A703B
:1045D0002C4B4FF08052DA625A631A46D36A03F4C6
:1045E0007043B3F5405FF9D8019F3A1DA36A002BD1
:1045F00040F0FE81022D6FD0032D00F01881012DB7
:1046000040F09C8307F1080100221E4B1F481C4DFF
:10461000DFF874E094464FF080564FF0C0594FF0E9
:104620000108DF6A17F0F00FFBD09F6BBFB24FEAB3
:10463000272A30F81AA021F804ACFFB230F817701E
:1046400021F8027C752A23DC2F784FEA074A4FB104
:104650004AF010475F63DF6A07F47047B7F5405FC1
:10466000F9D834E0DEF8007087F800C0DE625E63DF
:10467000DF6A07F47047B7F5405FF9D827E000BF5D
:1046800004E1FF1F00C0024000E1FF1F68D40000EA
:10469000772A1CDC2F784FEA074A4FB14AF080573F
:1046A0005F63DF6A07F47047B7F5405FF9D80EE043
:1046B000DEF8007087F800C0DE62C3F83490DF6A6D
:1046C00017F0805FFBD0DEF8007087F800800232C0
:1046D0000431802AA5D12EE3A08D0021C04BC14D0D
:1046E000C14EDFF808C388464FF0805EDF6A17F0DE
:1046F000F00FFBD09F6BBFB24FEA272935F819A006
:10470000FFB235F817900FFA8AFB17460BFA80F0C4
:1047100040101080A2F802A00FFA89FA0BEB0A00F1
:1047200040109080A2F80690D86A10F0F00FFBD0ED
:10473000986B80B24FEA202935F819B0C0B235F82D
:1047400010000FFA8BF9CA444FEA6A0AA7F808A0CA
:10475000A7F80AB009FA80F94FEA6909A7F80C909E
:10476000F8816F2900F3FC8237784FEA07494FB18F
:1047700049F010475F63DF6A07F47047B7F5405FA1
:10478000F9D8F1E2DCF8007087F80080C3F82CE07B
:10479000C3F834E0DF6A07F47047B7F5405FF9D833
:1047A000E2E237784FEA07494FB149F010475F63BB
:1047B000DF6A07F47047B7F5405FF9D82FE0DCF8FF
:1047C000007087F80080C3F82CE0C3F834E0DF6A9B
:1047D00007F47047B7F5405FF9D820E037784FEA23
:1047E00007494FB149F080575F63DF6A07F47047AC
:1047F000B7F5405FF9D812E0DCF8007087F8008068
:10480000C3F82CE04FF0C0575F63DF6A17F0805F9A
:10481000FBD04FF00107DCF8009089F800700831F8
:10482000103280297FF462AFA085402686E2A68DF3
:1048300000256B4BDFF8ACE1DFF8ACB1DFF8AC91F1
:10484000A046D96A11F0F00FFBD0996B89B208121B
:104850003EF81000C9B23EF8117036B204B21146EB
:1048600006EB460CA4444FEAAC0CA2F800C006EBE1
:10487000040C4FEA6C0CA2F802C004EB440C664432
:10488000B6109680D08038B20CEB0006B6101681B8
:1048900026187610568100EB400C6444A4109481D5
:1048A000D781DC6A14F0F00FFBD09E6BB6B23412E5
:1048B0003EF81440F6B23EF816605F2D00F35882C1
:1048C0009BF800704FEA074A4FB14AF010475F6308
:1048D000DF6A07F47047B7F5405FF9D84CE24FF054
:1048E0000007D9F800A08AF800704FF08057DF6207
:1048F0005F63DF6A07F47047B7F5405FF9D83BE2C2
:104900009BF800704FEA074A4FB14AF010475F63C7
:10491000DF6A07F47047B7F5405FF9D835E04FF02C
:104920000007D9F800A08AF800704FF08057DF62C6
:104930005F63DF6A07F47047B7F5405FF9D824E09A
:104940009BF800704FEA074A4FB14AF080575F6307
:10495000DF6A07F47047B7F5405FF9D815E04FF00C
:104960000007D9F800A08AF800704FF08057DF6286
:104970004FF0C0575F63DF6A17F0805FFBD04FF0E6
:104980000107D9F800A08AF8007027B2BC444FEAAA
:10499000AC0CA1F810C000EB070C4FEA6C0CA1F8AE
:1049A00012C007EB470C604480108882CC8230B282
:1049B0000CEB0004A4100C833C1864104C8300EB37
:1049C0004000384480108883CE8310352032802DFB
:1049D0007FF437AF4446A8F82C602026AEE100BF34
:1049E00000C0024068D4000004E1FF1F00E1FF1F87
:1049F000022D55D0032D00F0E380012D40F094816D
:104A00000021B84BB848B94F8E464FF080554FF053
:104A1000C0584FF0010CDE6A16F0F00FFBD09E6B11
:104A200076BA22F8026B7A2919DC06784FEA064931
:104A30004EB149F010465E63DE6A06F47046B6F584
:104A4000405FF9D828E03E6886F800E0DD625D63EB
:104A5000DE6A06F47046B6F5405FF9D81CE07B29A3
:104A60001ADC06784FEA06494EB149F080565E637B
:104A7000DE6A06F47046B6F5405FF9D80CE03E6891
:104A800086F800E0DD62C3F83480DE6A16F0805FED
:104A9000FBD03E6886F800C001318029BBD14CE1D3
:104AA000B4F82CB000218F4B8F4EDFF840C28846FF
:104AB0004FF0805E4FF00109D86A10F0F00FFBD084
:104AC000986B90FA90FA1FFA8AFAD86A10F0F00FF1
:104AD000FBD09D6B6DBAAFB20FFA8AF000FA8BFB78
:104AE0004FEA6B0BA2F800B0A2F802A000FA87F020
:104AF00040109080D780772900F3428130784FEAC8
:104B0000004A48B14AF010405863D86A00F4704037
:104B1000B0F5405FF9D837E1DCF8000080F800809C
:104B2000C3F82CE0C3F834E0D86A00F47040B0F564
:104B3000405FF9D828E130784FEA004A48B14AF09E
:104B400010405863D86A00F47040B0F5405FF9D85F
:104B50002DE0DCF8000080F80080C3F82CE0C3F8FA
:104B600034E0D86A00F47040B0F5405FF9D81EE038
:104B700030784FEA004A48B14AF080505863D86A0A
:104B800000F47040B0F5405FF9D810E0DCF80000A8
:104B900080F80080C3F82CE04FF0C0505863D86A0A
:104BA00010F0805FFBD0DCF8000080F8009004314A
:104BB0000832802901D0BB467EE7A5854026BDE0AE
:104BC000B4F82C900021474B474EDFF820C18846AF
:104BD0004FF0805ED86A10F0F00FFBD0986B90FA1F
:104BE00090FB1FFA8BFBD86A10F0F00FFBD09D6B87
:104BF0006DBAAFB20FFA89F90FFA8BF009EB490AD7
:104C000082444FEAAA0AA2F800A009EB000A4FEA80
:104C10006A0AA2F802A000EB400AD1444FEAA909AF
:104C2000A2F80490A2F806B00FFA87F9CA444FEA36
:104C3000AA0AA2F808A000EB090A4FEA6A0AA2F839
:104C40000AA009EB4909484480109081D7816F2957
:104C500000F39E8030784FEA004948B149F0104097
:104C60005863D86A00F47040B0F5405FF9D893E01B
:104C7000DCF8000080F80080C3F82CE0C3F834E0D2
:104C8000D86A00F47040B0F5405FF9D884E030781D
:104C90004FEA004948B149F010405863D86A00F41F
:104CA0007040B0F5405FF9D835E0DCF8000080F8DE
:104CB0000080C3F82CE0C3F834E0D86A00F47040F8
:104CC000B0F5405FF9D826E030784FEA004978B176
:104CD00049F080505863D86A00F47040B0F5405FE6
:104CE000F9D818E000C0024004E1FF1F00E1FF1FF7
:104CF000DCF8000080F80080C3F82CE04FF0C050D2
:104D00005863D86A10F0805FFBD04FF00100DCF8E8
:104D1000009089F8000008311032802901D0B9468E
:104D200058E7A585202609E0019801F0EDFF20460F
:104D3000FFF71CFB34E0802600E080262046019926
:104D4000002202F001F8019801F0DEFFE3691E4441
:104D5000E661636A9E4223D32046FFF707FB1FE00C
:104D600067297FF71EAD5AE567297FF71AAD35E54C
:104D70004F2D7FF7C5AD08E64F2D7FF7C1ADDFE5BD
:104D800073297FF7D8AE12E773297FF7D4AEEFE629
:104D900067297FF77CAFBEE767297FF778AF93E796
:104DA00003B0BDE8F08F00BF844641EA000313F072
:104DB00003036DD1403A41D351F8043B40F8043B22
:104DC00051F8043B40F8043B51F8043B40F8043BE5
:104DD00051F8043B40F8043B51F8043B40F8043BD5
:104DE00051F8043B40F8043B51F8043B40F8043BC5
:104DF00051F8043B40F8043B51F8043B40F8043BB5
:104E000051F8043B40F8043B51F8043B40F8043BA4
:104E100051F8043B40F8043B51F8043B40F8043B94
:104E200051F8043B40F8043B51F8043B40F8043B84
:104E300051F8043B40F8043B403ABDD2303211D324
:104E400051F8043B40F8043B51F8043B40F8043B64
:104E500051F8043B40F8043B51F8043B40F8043B54
:104E6000103AEDD20C3205D351F8043B40F8043B24
:104E7000043AF9D2043208D0D2071CBF11F8013B22
:104E800000F8013B01D30B8803806046704700BFE8
:104E9000082A13D38B078DD010F003038AD0C3F1F7
:104EA0000403D21ADB071CBF11F8013B00F8013BD9
:104EB00080D331F8023B20F8023B7BE7043AD9D398
:104EC000013A11F8013B00F8013BF9D20B7803706D
:104ED0004B7843708B7883706046704730B4394AA2
:104EE0003949136813F0800FFBD10B6813F0800F62
:104EF000F7D172B6354B1B78002B5FD0344B1C6852
:104F000004331D68043318680433196804331A68BD
:104F100004331B682C44204401440A441A44C2F35D
:104F20004E0242F400422B4B1A602C331C680433AF
:104F30001D68043318680433196804331A6804338D
:104F40001B682C44204401440A441A44C2F34E0214
:104F500042F40042204B1A6003F108131C6804332A
:104F60001D68043318680433196804331A6804335D
:104F70001B682C44204401440A441A44C2F34E02E4
:104F800042F40042154B1A602C331C6804331D6830
:104F9000043318680433196804331A6804331B682F
:104FA0002C44204401440A441A44C2F34E0242F401
:104FB00000420B4B1A600022044B1A7062B630BCE0
:104FC000704700BF24B0034024B00B40BDDEFF1F7C
:104FD00038B003402CB0034030B003402CB00B403D
:104FE00030B00B4060223A4B1A70E12201331A7044
:104FF000384B1B78082B10D1212203F1804303F595
:105000006C331A60132334490B6001F5FF2101F260
:10501000FC710A60314A13601FE00A2B0DD139225E
:105020002F4B1A6013232C490B6001F5FF2101F26D
:10503000FC710A60294A13600FE00C2B0CBF35226B
:105040005D22274B1A60122323490B6001F5FF21D3
:1050500001F2FC710A60214A1360224B1B7833B1C4
:105060000123214A136002F50022136005E00023AA
:105070001D4A136002F5002213601C4B1B78012BA4
:1050800006D880231A4A136002F5002213601AE042
:10509000042B06D88423164A136002F500221360FD
:1050A00011E0082B06D88523114A136002F500226F
:1050B000136008E0102B94BF862387230C4A1360EB
:1050C00002F50022136001220A4B1A70704700BFDC
:1050D00000400740D099FF1F0CB003400CB00B40BC
:1050E00008B00340C0DEFF1F20B00340D199FF1F6E
:1050F00024B00340BDDEFF1F08B588B1114B1B78FB
:10510000FBB901220F4B1A700F4B1B782BB10023F8
:105110000E4A136002F500221360FFF763FF08BD1B
:10512000084B1B786BB10022064B1A70064B1B789C
:105130002BB11346054A136002F500221360FFF7F6
:1051400051FF08BDC0DEFF1FBDDEFF1F24B00340BE
:1051500008B50C2804D9102828BF1020102307E018
:105160000A2804D8092834BF08230A2300E00C23A6
:10517000DAB2101A0849087008490978994209D02A
:10518000064B1A70064B1B7813B10022054B1A60B0
:10519000FFF728FF08BD00BFBCDEFF1FD099FF1F2F
:1051A000BDDEFF1F24B0034010B50446124B1B7830
:1051B0000BB1FFF793FE012C03D800220F4B1A60AE
:1051C00017E0042C03D804220C4B1A6011E0082CC1
:1051D00004D80522094B1A6008220AE0102C04D8D2
:1051E0000622064B1A60102203E00722034B1A60C6
:1051F0002022034B1A7010BDBDDEFF1F24B00340F8
:10520000D199FF1F2DE9F8430D2813D9172802D88B
:105210000E38C0B20EE0A0F11A03DBB2052B02D8A3
:105220000938C0B206E0A0F12203DBB2062B73D826
:105230001838C0B23A4B1E5C3A4B1B780BB1FFF7E3
:105240004DFE16F0800F29D172B6374C374D4FF016
:10525000010726602F7062B672B6236813F0800FC4
:1052600004D12B7813F0FF0F0FD1F2E7304B186801
:1052700000222E4B1A7062B62E4B1B781841BDE8E7
:10528000F8832B7813F0FF0FE3D062B602F04EF8EC
:1052900072B6236813F0800FF3D0E7E772B606F01A
:1052A00040095FFA89F9244F244C06F03F06244D4B
:1052B0004FF00108B9F1000F04D03B6823F0100350
:1052C0003B6003E03B6843F010033B60266085F8D9
:1052D000008062B672B6236813F0800F04D12B7879
:1052E00013F0FF0F0FD1E5E7164B18680022144B9F
:1052F0001A7062B60F4B1B781841BDE8F8832B7803
:1053000013F0FF0FD6D062B602F010F872B6236821
:1053100013F0800FF3D0E7E70020BDE8F88300BF6B
:1053200038D90000BDDEFF1F00B00340BFDEFF1F05
:1053300010B00340BCDEFF1F0CB00B4000B00B40B0
:10534000BEDEFF1F10B00B40024A137813F0010FAE
:10535000FBD070470100024010B584B0174B6C467B
:10536000186859689A68DB680FC4154B1B7813F0EE
:10537000020F19D08022134B1A70332204331A7093
:105380000322013B1A7072B66B4643F001030E4CC8
:105390002046984762B6237813F0700304D0237038
:1053A00009E0013B03D106E044F6216304490A7891
:1053B00012F0010FF5D004B010BD00BF50D90000AD
:1053C00001000240070002400000024010B5044600
:1053D000B0F5006F0AD2064B1B7813F0010F01D114
:1053E000FFF7BAFF04F1A054207810BD002010BDD3
:1053F0000100024038B504460D46B0F5006F0ED2EC
:10540000074B1B7813F0010F01D1FFF7A5FF04F143
:10541000A0542378AB4202D02570FFF795FF38BD2A
:1054200001000240024B1A6801321A60704700BF47
:105430004CDFFF1F08B50D4C236813F4802F01D0FB
:1054400000F096FE236813F4806F01D000F02CFD6D
:10545000236813F4006F01D002F086F9236813F477
:10546000805FE9D002F08EFBE6E700BF34800440A5
:1054700008B5FFF7DFFF00BF1022014B1A8070470D
:1054800000200540704700BF024A136818441060AE
:1054900018467047D499FF1FFEE700BFEFF3138350
:1054A000ABB9EFF31083ABB9EFF3058323B10F2B47
:1054B00005D9094A985C03E04FF4807000E00020B1
:1054C000EFF311833BB1834238BF184670474FF06A
:1054D000FF30704700207047F0E300E003782BB105
:1054E00000230133C25C002AFBD100E000231846F0
:1054F000704700BF30B40023B0FBF2F402FB140489
:105500001D46092C94BF30343734E4B2CC54B0FB80
:10551000F2F008B10133EFE70D4400226A709342C4
:1055200007DD885CCC5C8C54C8540132013B9A4244
:10553000F7DB084630BC704710B5154B1C681C6083
:1055400014F4805F05D0134BDB6813B1114BDB689B
:10555000984714F4005F05D00E4B1B6913B10D4B37
:105560001B69984714F0200F05D00A4B1B6E13B12E
:10557000084B1B6E984714F0100F07D0054BD3F85B
:1055800084301BB1034BD3F88430984710BD00BF63
:10559000A0900440C4DEFF1F10B5274B1C681C60A0
:1055A00014F4803F05D0254B1B6813B1234B1B68B7
:1055B000984714F4003F05D0204B5B6813B11F4B94
:1055C0005B68984714F0010F05D01C4B1B6C13B19E
:1055D0001A4B1B6C984714F0020F05D0174B5B6CED
:1055E00013B1164B5B6C984714F0080F05D0134BA2
:1055F0009B6C13B1114B9B6C984714F0040F05D0B2
:105600000E4BDB6C13B10D4BDB6C984714F4002F81
:1056100005D00A4B5B6E13B1084B5B6E984714F4D0
:10562000802F07D0054BD3F880301BB1034BD3F844
:105630008030984710BD00BFA0A00440C4DEFF1F0B
:1056400010B5384B1C681C6014F0080F05D0364BA1
:105650005B6A13B1344B5B6A984714F0100F05D0A6
:10566000314B9B6A13B1304B9B6A984714F0400F43
:1056700005D02D4BDB6A13B12B4BDB6A984714F036
:10568000800F05D0284B1B6B13B1274B1B6B984722
:1056900014F0200F05D0244B5B6B13B1224B5B6BD6
:1056A000984714F0010F05D01F4BDB6B13B11E4B55
:1056B000DB6B984714F0020F05D01B4B9B6D13B1A9
:1056C000194B9B6D984714F0040F05D0164BDB6DFA
:1056D00013B1154BDB6D984714F4007F05D0124BC6
:1056E000DB6E13B1104BDB6E984714F4807F05D04E
:1056F0000D4B1B6F13B10C4B1B6F984714F4806F4D
:1057000005D0094B5B6F13B1074B5B6F984714F4DF
:10571000006F05D0044B9B6F13B1034B9B6F9847F1
:1057200010BD00BFA0B00440C4DEFF1F10B5264B63
:105730001C681C6014F0010F05D0244B9B6813B14A
:10574000224B9B68984714F0800F05D01F4B5B6974
:1057500013B11E4B5B69984714F0100F05D01B4B1B
:105760009B6913B1194B9B69984714F0040F05D03E
:10577000164BDB6913B1154BDB69984714F0080F22
:1057800005D0124B1B6A13B1104B1B6A984714F0DB
:10579000020F05D00D4B9B6B13B10C4B9B6B9847C5
:1057A00014F0200F05D0094B1B6D13B1074B1B6D77
:1057B000984714F0400F05D0044B5B6D13B1034BB9
:1057C0005B6D984710BD00BFA0C00440C4DEFF1F42
:1057D00010B50B4B1C681C6014F0020F05D0094B70
:1057E0009B6E13B1074B9B6E984714F0010F05D0C9
:1057F000044BDB6F13B1034BDB6F984710BD00BF49
:10580000A0D00440C4DEFF1F30B4212831D8042AC0
:105810002FD8DFE802F00709050B03000B2406E090
:105820000A2404E0082402E00C2400E00924124BBE
:1058300003EBC0035A68114B114DC3F89C51114D35
:10584000C3F8A051104DC3F8A451104DC3F8A8518E
:105850000F4DC3F8AC5172B6136823F47023136074
:105860000C4D45F8201043F0807343EA0444146063
:1058700062B630BC704700BF60D900000094FF1FC3
:105880003955000099550000415600002D57000081
:10589000D1570000C4DEFF1F094B03EBC0035A6859
:1058A00072B6136823F0877323F4803343F0807358
:1058B00013600022034B43F8202062B6704700BFFC
:1058C00060D90000C4DEFF1F044B00221A600449A7
:1058D0000A60044A106010221A60704714D0034016
:1058E00004D0034000D0034021281ED80F4B53F8AA
:1058F000303093F8802212F0FF0F08D019B1012246
:1059000083F880207047012283F800217047074BFD
:1059100003EBC000436821B11A6842F003021A6029
:1059200070471A6822F002021A60704760D90000BE
:10593000212806D8044B53F8303093F80002C0B247
:1059400070470020704700BF60D9000021281CD894
:105950000E4B03EBC0035B68012908D10B4A52F8D8
:10596000302082F880124FF4A2721A607047074A02
:1059700052F83020002082F8800219B94FF480726A
:105980001A60704740F203121A60704760D9000035
:1059900072B60C4B1B680C4A12680C49096862B657
:1059A00011F0806F02D0322B88BF0132C3F5EA3389
:1059B000BF330749A1FB03039B094FF47A7000FB37
:1059C0000230704718E000E04CDFFF1F04ED00E0FC
:1059D0008988888838B50546FFF7DAFF044665B13F
:1059E000FFF7D6FF001BB0F57A7F03D3013D04D04B
:1059F00004F57A7401F09AFCF2E738BD10B5254B36
:105A00004FF400021A604FF080721A604FF000727B
:105A10001A604FF080621A604FF000621A60002036
:105A20001D4B18604EF6FF710433196028231B4A82
:105A300013600832136008321360083213600832B2
:105A400013600832136008321360083213600922B1
:105A5000134C226004F58054043420600434216027
:105A60000434236008342360143C226004F5FE24CF
:105A7000043420600B4801600B490B6008310B6057
:105A80000A4B1A60FFF7AEFA0420FFF7A3FF00F0FD
:105A9000E7FE10BD08E100E0048003400C800340F5
:105AA0000080034008800B400C800B4000800B40BE
:105AB000194B1A6842F480621A600023174A137067
:105AC000174A1370174A1370174A1370174A137046
:105AD00040F21332164B1A604FF4517204331A60BD
