:1000000000800020BD010000656A0000296A000030
:10001000296A0000296A0000296A0000296A000094
:10002000296A0000296A0000296A0000656A000048
:10003000656A0000296A0000656A0000196A00000C
:10004000656A0000656A0000656A0000656A000074
:10005000656A0000656A0000656A0000656A000064
:10006000656A0000656A0000656A0000656A000054
:10007000656A0000656A0000656A0000656A000044
:10008000656A0000656A0000656A0000656A000034
:10009000656A0000656A0000656A0000656A000024
:1000A00079370000656A0000656A0000656A000033
:1000B000656A0000656A0000656A0000656A000004
:1000C000656A0000656A0000656A0000656A0000F4
:1000D000656A0000656A0000656A0000656A0000E4
:1000E000656A0000656A0000656A0000656A0000D4
:1000F000656A00009D740000656A0000698E00005A
:10010000656A000085920000656A0000656A00006B
:10011000656A0000656A0000656A0000656A0000A3
:10012000656A0000656A0000656A0000656A000093
:10013000656A0000656A0000656A0000656A000083
:10014000656A0000656A0000656A0000656A000073
:100150009D860000B5860000CD860000E586000083
:10016000656A000065770000656A0000656A000046
:10017000656A0000656A0000656A0000656A000043
:10018000656A0000656A0000656A0000656A000033
:10019000656A0000656A0000656A0000656A000023
:1001A000656A0000656A0000656A0000656A000013
:1001B000656A0000656A00002584000010B56A4B7E
:1001C0004CF220521A804DF628121A8000BF00BF50
:1001D00006F04CFC4FF01062644B1A60644A08331E
:1001E0001A60644A04331A60A3F530432C3B1B6841
:1001F00013F4807F06D100225F4B1A604FF4A8529F
:10020000043B1A605D4B1B7813F0080F04D05B4B66
:100210001A7842F008021A702A22594B1A70594B68
:10022000594A9A420DD2131D584CE41A24F0030483
:1002300004340023104656495A581A500433A34236
:10024000FAD1544B544A9A4280F08980131F534983
:10025000C91A21F003011A1D1144002243F8042F8A
:100260008B42FBD17BE05A581A500433B3F5DE7F42
:10027000F9D14B4B80214B4A03F8011B9342FBD130
:10028000494B4A4A1A600A22494B1A702422A3F6A3
:10029000FF731A70A022013B1A7006331A7812F00D
:1002A000020FFBD0434B1A7812F0100FFBD1414BD9
:1002B0001A7802F00C02082AFAD103223E4B1A7077
:1002C000462201331A7001331A7812F0200FFBD046
:1002D000384B1A7812F0400FFBD04FF08272374B38
:1002E0001A60092204331A602022354B1A70063333
:1002F0001A7802F00C020C2AFAD1324A324B1A60F8
:10030000324A334B1A600722043B1A60314A03F524
:1003100051631A6062B606F06BFE174B1B6813F050
:10032000010F05D02C4806F0C9FD2C4A2C4B1A6051
:100330002C4B1B7813F0400F0AD0294B1A68274B1F
:100340009A4205D1244806F0B9FD0022244B1A60D8
:100350000AF0EAFB06F090FB08F09EFAFEE70023A5
:10036000124821497FE700BF0E200540308004403D
:10037000823F04000100002B14D0034002D007404C
:1003800000E00740F4A2FF1F6099FF1FF7A2FF1FC4
:1003900080F6000098E2FF1FF4A2FF1F93E2FF1F08
:1003A00000E400E05FE400E008ED00E00094FF1FDF
:1003B0000050064006400640044006404480044089
:1003C00000400640C010050004800440BFD4010076
:1003D00014E000E0000020207CC26555A5C3945ABB
:1003E0001CE0034000F0074000000000FFFFFFFF9B
:1003F000FFFFFFFFFFFFFFFFFFFFFFFFFFFFFFFF0D
:10040000FFFFFFFFFFFFFFFFFFFFFFFFFEFFFFFFFD
:1004100010B5054C237833B9044B13B10448AFF33E
:1004200000800123237010BDF4A2FF1F0000000014
:1004300078F6000008B5064B1BB106480649AFF335
:1004400000800648036813B1054B03B1984708BD07
:100450000000000078F60000F8A2FF1FF4A2FF1FC2
:10046000000000000122014B1A70704788CDFF1F69
:100470000122014B1A70704748CDFF1F0122014B2A
:100480001A7070471CAAFF1F0122014B1A70704797
:100490005CCFFF1F08B5024804F0D2FB08BD00BFC7
:1004A00094AFFF1F08B5024804F0CAFB08BD00BFA7
:1004B000A8AFFF1F10B50446034A40F8182B03F0FD
:1004C000EBFF204610BD00BF70F1000010B50446E0
:1004D00008F0D8F9204610BD0F4B0360417202614D
:1004E00000230372C36039B11946026942F8231030
:1004F0000133427A9A42F8DC084B1A680AB918604C
:1005000004E053690BB11A46FBE7506100234361D5
:100510008380C380704700BF50EA0000D8E0FF1F0F
:10052000144B03600423437200F12803036100238A
:100530000372C3601946026942F823100133427AFC
:100540009342F8DB0C4B1A680AB9186004E053694F
:100550000BB11A46FBE75061002343618380C380DF
:10056000064B03604FF480338361C36103624362CF
:10057000704700BF50EA0000D8E0FF1F50F10000B4
:1005800010B504460F4B03600023437203610372EE
:10059000C3600D4B1A680AB9186004E053690BB1C7
:1005A0001A46FBE7546100236361A380E380204681
:1005B000064B40F8183B03F05FFF204602F01AFCA0
:1005C000204610BD50EA0000D8E0FF1F70F1000087
:1005D00010B504460F4B036000234372036103729E
:1005E000C3600D4B1A680AB9186004E053690BB177
:1005F0001A46FBE7546100236361A380E380074A46
:100600002260074AA26184F82E30204604F062FB83
:10061000204610BD50EA0000D8E0FF1FF8F10000AE
:1006200003200038164B1B6813F0800F10D1154BB8
:100630001B786BB9144B1A68144B1B68D31AFA2B2E
:1006400006D901220F4B1A700F4B1A68104B1A6013
:10065000104B1B6813F0200F10D10A4B5B786BB95D
:10066000094B1A68094B1B68D31AFA2B06D90122C9
:10067000044B5A70044B1A68054B1A60704700BF50
:10068000D0F00F40B0B2FF1F50DFFF1F20AAFF1FA6
:100690005CCDFF1F90F00F4030B585B004460A4690
:1006A000124D01AB2868696803C329891980632A40
:1006B00005DD0DF10A000E490AF0ECFF0DE0092AF4
:1006C00005DD0DF10B000A490AF0E4FF05E0002A00
:1006D00003DB03A806490AF0DDFF01AB03CB206072
:1006E00061601B88238105B030BD00BF58EA00005F
:1006F00064EA0000F0B585B004468DB29A4B53F819
:10070000203093F82160994B1B5C042B00F215817B
:10071000DFE803F003527598B40026B9944B1F78B4
:10072000013FFFB203E0934B1F78013FFFB215F486
:10073000004F0CD03D4604EB84008F4B03EB800050
:10074000394604F0C3FA00228C4B1A7012E02BB227
:10075000BB420CDD894B1B784BB104EB8400864B0C
:1007600003EB8000002104F0B1FA002502E0012231
:10077000824B1A702BB2BB42C8BF3D46012E2BB232
:1007800003EB430203EB820201AB0CBF7C497D49C2
:100790000A441068516803C312891A802AB2724B46
:1007A00053F824305B789A4204BFB7238DF80430A5
:1007B000754B1D550222C5E015F4004F09D000EB22
:1007C00080006D4B03EB8000002104F07FFA0025D0
:1007D0000BE02BB2642B08DD00EB8000664B03EBD3
:1007E0008000642104F072FA64255F4B53F82430D2
:1007F00029B2596001A8FFF74FFF0422A2E02BB2F3
:10080000002B09DC00EB80005B4B03EB8000012137
:1008100004F05CFA01250BE02BB2642B08DD00EB41
:100820008000554B03EB8000642104F04FFA6425EF
:100830004D4B53F8243029B2996001A8FFF72CFFE3
:1008400006227FE028B901A829B2FFF725FF02227E
:1008500078E049B14D4B1A6801AB1068516803C389
:10086000127A1A7002226DE0494B1A6801AB1068C7
:10087000516803C3127A1A70022263E0002843D140
:1008800006295CD8DFE801F0040E5B18222C360044
:10089000404B1A6801AB1068516803C3127A1A7092
:1008A00002224FE03C4B1A6801AB1068516803C349
:1008B000127A1A70022245E0384B1A6801AB1068B0
:1008C000516803C3127A1A7002223BE0344B1A6853
:1008D00001AB1068516803C3127A1A70022231E02A
:1008E000304B1A6801AB1068516803C3127A1A7052
:1008F000022227E02C4B1A6801AB1068516803C331
:10090000127A1A7002221DE0022902D003290AD0AD
:1009100017E0264B1A6801AB1068516803C3127ABE
:100920001A7002220EE0224B1A6801AB106851685F
:1009300003C3127A1A70022204E0022202E00222A9
:1009400000E002221B4D2B6811191B682846C9B212
:10095000984701A806F0BCF802462B685B68284659
:1009600001A9984705B0F0BD98B2FF1FA4CEFF1FA4
:10097000C4B7FF1F60CDFF1F94AFFF1F24AAFF1F46
:1009800088C6FF1FF8BFFF1FC8BBFF1FA099FF1F2E
:10099000AC99FF1FC899FF1FCC99FF1F7C99FF1FBF
:1009A000A499FF1FA899FF1FB099FF1F7499FF1FFB
:1009B000B499FF1F0CE1FF1F38B50C4B1C7884F075
:1009C000010202F001021A7004EB8405084B03EBEC
:1009D0008505284604F058F930B1284604F066F938
:1009E00081B22046FFF786FE38BD00BFC8CDFF1F8D
:1009F00094AFFF1F08B50378034AD15C41701846D5
:100A0000FFF778FE08BD00BFC8BBFF1F38B504461E
:100A1000264B1B5C012B1FD013B1022B30D038BDED
:100A2000234B53F82000234B1A5D43789A4202D09F
:100A3000FFF7E0FF38BD01221C4B1A55456804EB57
:100A400084001D4B03EB800029B204F03FF92046DF
:100A5000A9B2FFF74FFE38BD0222144B1A54144BB3
:100A600053F820309D6800EB8000134B03EB8000AF
:100A700029B204F02BF92046A9B2FFF73BFE38BD9E
:100A800000220A4B1A540A4B53F8203000EB800026
:100A900093F90150084B03EB8000294604F016F946
:100AA0002046A9B2FFF726FE38BD00BFA4CEFF1F27
:100AB00098B2FF1FC8BBFF1F94AFFF1F2DE9F8437B
:100AC0003D4B1C7884F0010404F001041C703B4B86
:100AD0001B5D002B6DD024B9394A1268C2F3C012D5
:100AE00003E0384A1268C2F340122AB1012B11D137
:100AF0000222354B1A5518E0012B12D1334B1A68DC
:100B0000334B1B68D31AB3F5487F0AD903222E4B07
:100B10001A551AE02C4B1B5D042B02D10022274BE7
:100B20001A55294B1B5D022B0DD12046FFF76EFF96
:100B30000423254A1355214A1355244B1A68254B83
:100B40001A60BDE8F883032B33D1234E56F82430C6
:100B500093F8215093F8009009EB45094FEA4909B1
:100B6000DFF880801D4F58F829003946002201F037
:100B7000B7FE09F1010958F829003946002201F0B1
:100B8000AFFE56F8243085F0010505F0010583F825
:100B9000215000215970124B19552046FFF7AAFD2C
:100BA0000423064A1355084A1355084B1A68094B83
:100BB0001A60BDE8F88300BF48CFFF1FB0B2FF1F27
:100BC000D0F00F4090F00F4064CDFF1F50DFFF1FAB
:100BD0005CCDFF1F20AAFF1F98B2FF1F5BDC0E0039
:100BE000A4CEFF1F8099FF1F08B5FFF7E5FEFFF7B2
:100BF00019FDFFF763FF0022014B1A7008BD00BF0B
:100C00001CAAFF1F2DE9F843244B1B78002B42D070
:100C10000024234DDFF898804FF07E59214E28465E
:100C200056F8241004F0ECF90F2006F0CDF9671CFB
:100C300056F8270056F82430C01A09F02BFA064659
:100C4000284604F0D9FF8034400009F027FA014615
:100C5000304609F02BFB414609F074FA494609F089
:100C600069F909F05BFC104B43F82400284604F0B6
:100C7000CDFF09F00FFA414609F064FA09F04EFC85
:100C80000A4B43F82400BCB2284604F099F9034B00
:100C90001B78A342C2D8BDE8F88300BF60CDFF1F18
:100CA00010CEFF1F70AAFF1FF8BBFF1FC8B7FF1FA2
:100CB0000AD7233C30B58DB01E4C204605F012F803
:100CC0000546204604A905F023F89DF810309DF84C
:100CD000112000929DF8122001929DF8132002929B
:100CE000154816492A4607F0F5FD9DF81030EF2B00
:100CF0000ED19DF81130402B0CD19DF81230182BDD
:100D00000AD19DF81350D5F1010538BF002504E044
:100D1000002502E0002500E00025074C23685B6801
:100D20002046074900229847204607F0BDFD284687
:100D30000DB030BD10CEFF1F34E1FF1F68EA000088
:100D40001CEB00002DE9F043ADF6D40D684603F02E
:100D500093FB0DA803F090FB0DF668061AAC002576
:100D60002046294607F03CFE1034B442F8D10DF677
:100D700068006149002203F0B1FA9DF86C388DF8E3
:100D80000430DDF8703802939DF874388DF80C301B
:100D9000DDF878380493DDF87C380593DDF8803889
:100DA0000693DDF884380793DDF8883808939DF8BA
:100DB0008C388DF824309DF88D388DF825300DF560
:100DC0000D6353F8420D59689A68CDF82600CDF8A6
:100DD0002A10CDF82E201B7B8DF832300DF66800DE
:100DE00003F05AFB1AAE00252F46DFF81091DFF80A
:100DF00010810DF69C006946002203F0FFF89DF873
:100E0000A0388DF83830DDF8A4380F939DF8A83855
:100E10008DF84030DDF8AC381193DDF8B03812931E
:100E2000DDF8B4381393DDF8B8381493DDF8BC3826
:100E300015939DF8C0388DF858309DF8C1388DF85D
:100E400059300DF50D6353F80E0D59689A68CDF8B9
:100E50005A00CDF85E10CDF862201B7B8DF866300D
:100E60000DF69C0003F018FB9DF85930032B1DD89C
:100E7000012B06D8129C14F0FF0F03D044F0FF049E
:100E800000E0002430460DF15A0107F0BDFD484650
:100E9000414656F8102B234607F01CFD27440DA8A9
:100EA00003F016FC0135ADB2802DA2D1684603F0E7
:100EB0000FFC05EB45039B0006331B1201339BB26D
:100EC00007EB0327B7F1807F34BF2E4600260DF6CF
:100ED000580416AD204607F037FD103CAC42F9D15E
:100EE0000DA803F0D9FA684603F0D6FA30460DF69D
:100EF000D40DBDE8F08300BFA8EA000034E1FF1F75
:100F0000B4EA00002DE9F04FADF5377D044602A8A4
:100F100003F0B2FA0FA803F0AFFA844D2B685B68B8
:100F20002846834907229847284607F0BDFC814898
:100F30001CA90022012305F027F99DF870209DF8D7
:100F4000713003EB02239BB29C4214D02B685B6888
:100F50002846794925229847284607F0A5FC2B68A2
:100F60005B682846754900229847284607F09CFC94
:100F70004FF0000BCFE004EB4405AD0006352D1219
:100F800001356A486E49224607F0A4FC9CA86D49C9
:100F9000002203F0A3F99DF874328DF80C309E9B6B
:100FA00004939DF87C328DF81430A09B0693A19B8E
:100FB0000793A29B0893A39B0993A49B0A939DF874
:100FC00094328DF82C309DF895328DF82D30B6ABDB
:100FD00053F8420D59689A68CDF82E00CDF83210BA
:100FE000CDF836201B7B8DF83A309CA803F054FADC
:100FF0004FF0010ADFF83C811FFA8AFB0BF1FF3446
:10100000A4B2A9A802A9002202F0F8FF9DF8A83214
:101010008DF84030AB9B11939DF8B0328DF848307D
:10102000AD9B1393AE9B1493AF9B1593B09B1693FC
:10103000B19B17939DF8C8328DF860309DF8C93286
:101040008DF86130B6AB53F80E0D59689A68CDF83B
:101050006200CDF86610CDF86A201B7B8DF86E30EB
:10106000A9A803F019FA9DF86130032B4FD82B0281
:1010700000932E48344952460DF1620307F02AFCD2
:101080001CAC0027B9462046FF214FF480720AF0BD
:10109000B3F80FA821464FF4807203F003FA064616
:1010A00040465CA92A46012305F06EF83B464A46B5
:1010B0000DF5B87E185D13F80E10411A0A4401337D
:1010C000B3F5807FF6D17AB1184C23685B6820466F
:1010D0001E4908229847204607F0E6FB02A803F0C5
:1010E000F7FA4FF0000B16E00135ADB2B6F5807F90
:1010F000C9D00E48164907F0EDFB0FA803F0E8FA37
:101100000AF1010ABAF1810F7FF476AF00E0A3463D
:1011100002A803F0DDFA0FA803F0BEF902A803F05D
:10112000BBF958460DF5377DBDE8F08F34E1FF1F60
:10113000C4EA000010CEFF1FCCEA00001CEB000048
:10114000F4EA0000A8EA000020EB000050EB0000E9
:101150005CEB000099B92E2804D101220A4B1A70C9
:1011600020207047A0F13003DBB2092B0AD9A0F18F
:101170004103DBB2192B04D82030C0B270472020C5
:1011800070472020704700BF88A3FF1F2DE9F04F54
:10119000ADF6FC3D02AF804607F1200003F06CF98C
:1011A00007F1540003F068F908EB48039B0006338D
:1011B0001B1201337B6007F6883607F56274002541
:1011C0002046294607F00CFC1034B442F8D107F64B
:1011D0008830C149002203F081F897F88C3B87F8EA
:1011E0002430D7F8903BBB6297F8943B87F82C30BB
:1011F000D7F8983B3B63D7F89C3B7B63D7F8A03B81
:10120000BB63D7F8A43BFB63D7F8A83B3B6497F8D4
:10121000AC3B87F8443097F8AD3B87F8453007F58D
:101220003F6353F8420D59689A68C7F84600C7F8FB
:101230004A10C7F84E201B7B87F8523007F68830DB
:1012400003F02AF9B8F1000F00F08E8008F1FF33A7
:101250009BB20233FB6107F5627A7C684FF00109AB
:10126000DFF890821FFA89FB0BF1FF35ADB207F66C
:10127000BC3007F12001002202F0C0FE97F8C03B0D
:1012800087F85830D7F8C43BFB6597F8C83B87F818
:101290006030D7F8CC3B7B66D7F8D03BBB66D7F83D
:1012A000D43BFB66D7F8D83B3B67D7F8DC3B7B6782
:1012B00097F8E03B87F8783097F8E13B87F879308A
:1012C00007F53F6353F80E0D59689A68C7F87A001E
:1012D000C7F87E10C7F882201B7B87F8863007F698
:1012E000BC3003F0D9F897F87930032B43D82502A6
:1012F00000957A487A494A4607F17A0307F0EAFAF4
:1013000007F5C47101EB890343F8045C504607F10B
:101310007A0107F079FBFF2607F1880031464FF488
:10132000807209F069FF07F1540007F188014FF45A
:10133000807203F0B7F80546404607F1880122465F
:1013400004F0E2FD0134A4B2B5F5807FE4D007F1EA
:10135000540003F0BDF909F101090AF1100AFA6914
:1013600091457FF47FAF03E07C680023BB6003E01E
:10137000C7F808B000E0BD602402796839614FEA1F
:101380000129ADEB090D02AAFA609046534D2B6876
:10139000544E5B682846314600229847284607F09D
:1013A00083FA284650497A6807F094FAF868FF21D2
:1013B0004A4609F021FFBB68BB611B128DF808305B
:1013C000B968FA685170230E9370230CD370240A05
:1013D00014710022FB685A712B685B6828463146FD
:1013E0009847284607F060FAB968002945D0FA689E
:1013F0007A6191464FF0000B3C4E07F5C47353F8E9
:101400002B301A0E89F806201A0C89F807201A0AC0
:1014100089F8082089F809301FFA89F279691FFADA
:1014200081FACAF10A04FA611444A4B200932B4869
:101430002F495A46BB6907F04DFA002333704FEA33
:101440000B1207F56273D558013DCAF1120AFA6909
:1014500092441FFA8AFA15F8010F3178FFF77AFEE5
:1014600008F804000134A4B25445F4D10BF1010B87
:1014700009F10C09BB695B45BFD17968CDB2174C46
:1014800023685B682046174900229847204607F0EA
:101490000BFA002D32D0FE68013D5FFA85FB0BF19F
:1014A000010B0024DFF834A0DFF84C90DFF8448013
:1014B000651C23020093504649462A463B6907F0C3
:1014C00009FA40463146224604F01EFD06F58076B4
:1014D0005D4513D02C46EBE7A8EA000034E1FF1F7E
:1014E00064EB00001CEB0000A4EB000088A3FF1FCE
:1014F000C8EB000010CEFF1FF0EB0000124C20469E
:10150000124907F0E7F923685B682046104900227A
:101510009847204607F0C8F907F6783407F55E7556
:10152000204607F011FA103CAC42F9D107F1540003
:1015300002F0B2FF07F1200002F0AEFFB86807F634
:10154000F437BD46BDE8F08F34E1FF1F34EC0000F6
:101550001CEB000030B484B0044601AB0068616845
:1015600003C300221346A15C202904BF0133DBB270
:101570000132082AF7D11D46082B13D80DF10302BA
:10158000E11812F8010F48700133DBB2092BF7D1D3
:1015900008E0DAB2A1540133DAB2AA42F9D9002341
:1015A000637202E000232021F3E704B030BC7047EF
:1015B0002DE9F04F85B007468A46851D0E46254C1D
:1015C00023685B682046244900229847204607F09C
:1015D0006BF9BAF1000F39D00A37DFF884B0DFF8C1
:1015E0008490384617F8043C6A7895F802804FEAF0
:1015F000082808EB0248EA78904408EB0368C6EB39
:101600000A044BF824800023C15C01AA99540133D9
:10161000082BF9D10C351046FFF79CFF04EB440E64
:1016200004EB8E0E09EB0E0201AB03CB49F80E0062
:1016300051601B881381074808492246434607F03A
:1016400049F9013EB6B20C37002ECAD105B0BDE84B
:10165000F08F00BF34E1FF1F1CEB00003CEC0000EA
:1016600070AAFF1F88C6FF1FF0B5C1B000AF1C48AD
:1016700039460022012304F087FD3C787B7803EB98
:101680000424A4B2631E9BB27F2B24D8BB78FE78BF
:10169000360406EB03663B7906EB03267B791E4492
:1016A00004EB44039B0006331B1201336A46A2EB92
:1016B000032295460A486946002204F065FDE5B21A
:1016C00068462946FFF774FF064B1D70064B43F82A
:1016D0002460204600E0002007F58277BD46F0BD7B
:1016E00010CEFF1F60CDFF1F70AAFF1F10B50C4C5E
:1016F00023685B6820460B4910229847204607F074
:10170000D3F80948012104F091FB23685B68204667
:10171000064905229847204607F0C6F810BD00BFCD
:1017200034E1FF1F68EC000010CEFF1F7CEC0000CE
:1017300010B53F4B04221A705A703E4B1B784BB9C0
:1017400000200121FEF7D6FF4FF47A6005F03CFC43
:1017500000245EE000200146FEF7CCFF4FF47A70D3
:1017600005F032FCFFF7EEFA0446002849D00120CC
:101770000221FEF7BFFF2046FFF7C4FBA0BB4FF4DA
:101780007A7005F021FC00200521FEF7B3FF01204F
:101790000321FEF7AFFFFFF7A9FF00200621FEF7A8
:1017A000A9FF01200321FEF7A5FF2046FFF7EEFC6D
:1017B000044640F2DC5005F007FC2046FFF7A2FB90
:1017C000044640B100200146FEF794FF01200221AB
:1017D000FEF790FF03E000200121FEF78BFF4FF49E
:1017E000FA6005F0F1FB14E000200321FEF782FF10
:1017F00001200321FEF77EFF4FF4FA6005F0E4FBC1
:1018000007E000200421FEF775FF4FF47A6005F031
:10181000DBFB4FF47A7005F0D7FB054B00221A7002
:101820005A70054B1A68054B1A60E0B210BD00BF34
:10183000A4CEFF1F58AFFF1F50DFFF1F20AAFF1FBE
:101840002DE9F00300231C4618491A466426DFF8E8
:101850006480174DDFF860C05F583C705F58787047
:101860005F587A6053F80190C9F80860C9F80C20F5
:1018700058F82070C9F8107055F82070C9F8147025
:1018800055F8207006FB07F7C9F81C70DCF80070EB
:10189000C9F8187089F8202089F821200134043310
:1018A000022CD9D1BDE8F003704700BF98B2FF1FEA
:1018B000C8B7FF1FF8BBFF1F7899FF1F2DE9F0473E
:1018C000044690F8208090F821600778457808EB6E
:1018D00047095FFA89F92D4B1A88C7F103012C4B90
:1018E00033F91130D21A436803EB621323EAE3732E
:1018F000632BA8BF6323C360026902FB03FAA6B18E
:101900000023C36009F10402224B53F8220022494C
:10191000012200F0E5FF214B53F82900204B53F83A
:101920002510524603F03AFA13E01A4B53F82900F7
:101930001C49012200F0D4FF05EB450305EB8303AE
:10194000194A52F82900194919444FEA6A2201F04C
:10195000FBFA88F0010808F0010808EB470707EBDD
:1019600086070C4B53F827001149002200F0B8FFFE
:1019700084F8208005EBC6150E4B53F82530236103
:101980000D4B53F825306361BDE8F087BCAFFF1FF6
:1019900058B2FF1F8099FF1F5D74D1056499FF1F26
:1019A00070AAFF1F1F7CF001B899FF1F9CA3FF1FA7
:1019B0005BDC0E00F8BBFF1FC8B7FF1F08B5124B5A
:1019C0001B7813F0FF0F0CD0104B1868FFF776FF51
:1019D00000230D4A13700E4A13700E4B1A680E4BFB
:1019E0001A600E4B1B7813F0FF0F0CD0074B586892
:1019F000FFF764FF0023094A1370094A1370054B6F
:101A00001A68084B1A6008BD88CDFF1F98B2FF1FE7
:101A10009CCDFF1F50DFFF1F44CDFF1F48CDFF1F90
:101A200040CDFF1F40CEFF1F08B5144B1968144B63
:101A30001B68144A1268891ADA6991421CD993F812
:101A4000211093F8202082F0010202F001022020F0
:101A50000D4B186002EB81020C4B53F822000C492D
:101A6000002200F03DFF054B1A680A4B1A60012363
:101A7000094A1370094A137008BD00BF50DFFF1FE9
:101A800098B2FF1F44CDFF1FC4F00F408099FF1F85
:101A90005BDC0E00ACACFF1F9CCDFF1FFDCDFF1F1C
:101AA00008B5154B1968154B5B68154A1268891AF9
:101AB000DA6991421ED993F8212093F8203003F07F
:101AC0000103002B14BF0223032340200D490860AB
:101AD00003EB82020C4B53F822000C49002200F069
:101AE000FFFE054B1A680A4B1A600123094A13705E
:101AF000094A137008BD00BF50DFFF1F98B2FF1FD7
:101B000040CEFF1FC4F00F408099FF1F5BDC0E002A
:101B100008CDFF1F40CDFF1FFCCDFF1F2DE9F04377
:101B2000B9B004A802F0A8FC11A8AB49002202F049
:101B3000D5FBAA4C9DF848302371139BA3609DF8F8
:101B400050302373159B2361169B6361179BA36120
:101B5000189BE361199B23629DF8683084F8243058
:101B60009DF8693084F8253038AB53F8765D5868B5
:101B70009968C4F82650C4F82A00C4F82E101B7BBC
:101B800084F8323011A802F087FC1EA821460022FA
:101B900002F034FA9DF87C308DF81430209B0693C7
:101BA0009DF884308DF81C30229B0893239B099369
:101BB000249B0A93259B0B93269B0C939DF89C30AA
:101BC0008DF834309DF89D308DF8353038AB53F8B2
:101BD000420D59689A68CDF83600CDF83A10CDF824
:101BE0003E201B7B8DF842301EA802F055FC7C4C39
:101BF0007C4E7D4DC6E0022005F0E6F98DE09DF8B3
:101C000036305F2B03D1022005F0DEF985E038A8DD
:101C10004044AA38754909F063FD00287DD1744A13
:101C200007EB470307EB8307D31938A951F8AACD6F
:101C3000D1F804E0886842F807C0C3F804E098606F
:101C40000A7B1A736B4F384601F016F90F2005F026
:101C5000BBF9384601F01AFC94F8008008F01AFA33
:101C6000314608F06FFA08F059FC08F013FA2946DB
:101C700008F068FA08F052FC5F4B43F82800384639
:101C800001F0F8FB94F8008008F004FA294608F007
:101C900059FA08F043FC594B43F82800384601F044
:101CA000BFF8C9F10D094FFA89F929EAE9795FFA14
:101CB00089F2B9F1080F13DC57B2C7F1090E0023FE
:101CC00001A8074404A9194491F82600A0F1410194
:101CD000C9B2192998BF2030F85401337345F1D1A6
:101CE0004AB12021013AD2B238A840FA82F303F86F
:101CF000DC1C002AF6D12278DFF808C102EB420E84
:101D000002EB8E0E0CEB0E0701AB03CB4CF80E0072
:101D100079601B783B720132227004A802F0D8FC73
:101D20002BA82E49002202F069F99DF8B0308DF8F9
:101D300014302D9B06939DF8B8308DF81C302F9BE6
:101D40000893309B0993319B0A93329B0B93339BEF
:101D50000C939DF8D0308DF834309DF8D1308DF84B
:101D6000353038AB53F80E0D59689A68CDF8360007
:101D7000CDF83A10CDF83E201B7B8DF842302BA8D1
:101D800002F08AFB9DF83530032B17D8277817F01F
:101D9000800F13D10DF1360004F09AFE5FFA80F93E
:101DA000A9F104085FFA88F804A8404424301449D3
:101DB00009F096FC00287FF422AF1CE707480023B7
:101DC00003618369C36102F083FC04A802F064FB31
:101DD00039B0BDE8F08300BF84EC000030A3FF1FE2
:101DE000C4B7FF1F6666663F0AD7233C88EC000035
:101DF0009CA3FF1FC0AFFF1FF8BBFF1FC8B7FF1F8B
:101E000090EC0000F8BFFF1F70B5012829D8154BD2
:101E100053F82040144B1E88144B33F91030F61A37
:101E2000A36803EB661626EAE676E068C0F1640074
:101E3000636903FB00F008F031F90D4908F082F9FD
:101E40000546632EB4BF3046632008F027F90146EB
:101E5000284608F077F908F03BFB0128B8BF0120BD
:101E6000E06170BD98B2FF1FBCAFFF1F58B2FF1FEB
:101E70000AD7233C38B500220D4B1A700D4B1B7846
:101E80000133DBB2032B02D80A4A137002E00022AE
:101E9000084B1A70074C257805F11000C0B204F009
:101EA000ABFC054B23F815002078FFF7ADFF38BDDC
:101EB0005CCFFF1FF4BBFF1F58B2FF1FF8B5224EC7
:101EC000224D234F234CFFF779FD33780BB9FFF7F1
:101ED000ABFDFFF773FD2B780BB9FFF7E1FDFFF7C3
:101EE0006DFD237813F0FF0F01D0FEF77DFEFFF7A5
:101EF00065FD194B1B7813F0FF0F01D0FFF7BAFFF8
:101F0000FFF75CFD154B1B785BB1154B1A68154B41
:101F10001B68D31A192B04D920233B6000220F4BD6
:101F20001A70FFF74BFD104B1B78002BCBD00C4BDE
:101F30001A680E4B1B68D31A192BC4D940233B6077
:101F40000022094B1A70BEE79CCDFF1F40CDFF1F3A
:101F5000C8F00F401CAAFF1F5CCFFF1FFDCDFF1F65
:101F600050DFFF1FACACFF1FFCCDFF1F08CDFF1FD4
:101F700010B504460020FF2104F036FD0120210A9F
:101F800004F032FD0220E1B204F02EFD10BD00BFCE
:101F90002DE9F04100213F4B19803F4B03221A707D
:101FA0005A700846FEF7A6FB4FF47A7005F00CF85D
:101FB000C82500264FF0100802241127404604F0DF
:101FC0001BFC08F06BF8314607F0B4FF06462046CC
:101FD00004F0FAFF384604F00FFC08F05FF83146D1
:101FE00007F0A8FF0646204604F0EEFF122004F09A
:101FF00003FC08F053F8314607F09CFF06462046E4
:1020000004F0E2FF132004F0F7FB08F047F8314634
:1020100007F090FF0646204604F0D6FF013DCDD1E3
:1020200030461E4908F042F908F078FA81B2194C9E
:1020300021800020FEF75EFB4FF4FA7004F0C4FF2D
:1020400001202188FEF756FB002605240D25114F9F
:1020500004E0284604F066FF00B996B1204604F07B
:1020600061FF0028F5D14FF47A7004F0ADFF0A4B00
:1020700000221A705A700A4B1A680A4B1A60BDE89F
:10208000F0813888FFF774FF01200021FEF732FB52
:102090000126E3E7BCAFFF1FA4CEFF1F00004844AA
:1020A00050DFFF1F20AAFF1F10B5012004F088FC9D
:1020B0000446022004F084FC00EB042080B210BD32
:1020C00070B5002004F012FB0C2004F03BFB042050
:1020D00004F064FB0220014604F032FF00200221DC
:1020E00004F02EFF0520022104F02AFF0D2002211A
:1020F00004F026FF1420012104F022FF1520012105
:1021000004F01EFF1420002104F0E8FE1520002139
:1021100004F0E4FE99480F2106F064F8984B1A7811
:1021200042F005021A700A2002F0D4FA80B9954CE8
:10213000954E1C2523685B68204631462A46984701
:10214000204606F0B1FB4FF4FA7004F03DFFF1E7D2
:10215000642004F039FF40F6230004F0A3FF8B480D
:1021600003681B680A2198470A2004F02DFF884A5B
:1021700000239361D36113625362864A9361D361F2
:1021800013625362FFF7CAFCFEF794FD824B18708E
:102190000D2004F0C7FE28B97F4B1B78002B40F0C0
:1021A00050810AE07C4B1B783BB1FFF75DFAC0B26F
:1021B000794B187008B1FEF725FD7848784943F649
:1021C000972206F047FB77487749784A06F042FBAA
:1021D000242008F0D1FC764C2060242008F0CCFCB0
:1021E00060600020FFF72CFB02207249024604F0D9
:1021F00005FE00207049022204F000FE6F4C04200E
:102200002146024604F0FAFD03202146042204F090
:10221000F5FD6B4C08202146042204F0EFFD06205A
:102220002146042204F0EAFD0A2004F0CDFE052038
:1022300004F078FE10B9FFF7ABFE0DE0002004F0CB
:10224000BFFBFF2804D1FFF72FFF5E4B188003E090
:1022500040F2FF725B4B1A8000200146FEF74AFAFB
:1022600001200021FEF746FA514B1D68AC6920465B
:10227000554908F023F928B92046002108F000F953
:1022800018B101E0504C00E0002420464FF08F418F
:1022900007F058FF08F01CF93D4B9861AC692046E7
:1022A000494908F00BF928B92046002108F0E8F860
:1022B00018B101E0444C00E0002420464FF08F416B
:1022C00007F040FF08F004F9314BD861AC692046B3
:1022D0003D4908F0F3F828B92046002108F0D0F86D
:1022E00018B101E0384C00E0002420464FF08F4147
:1022F00007F028FF08F0ECF8254B1862AC6920467F
:10230000314908F0DBF828B92046002108F0B8F878
:1023100018B101E02C4C00E0002420464FF08F4122
:1023200007F010FF08F0D4F8194B5862204B5D6895
:10233000AC692046244908F0C1F828B9204600219C
:1023400008F09EF818B101E01F4C00E00024204680
:102350004FF08F4107F0F6FE08F0BAF80D4B986188
:10236000AC692046184908F0A9F828B92046002190
:1023700008F086F858B329E0134C28E00082FF1FCC
:1023800002E1FF1F34E1FF1F98EC00000CE1FF1F8A
:102390005CAFFF1F60B2FF1F58AFFF1F64A3FF1F9A
:1023A000890400001CCDFF1F7D0400009FBB0D00B1
:1023B00098B2FF1F6504000071040000950400003E
:1023C000A5040000BCAFFF1F00FEFF46002420460E
:1023D0004FF08F4107F0B6FE08F07AF81B4BD8613A
:1023E000AC6920461A4908F069F828B9204600214E
:1023F00008F046F818B101E0154C00E00024204632
:102400004FF08F4107F09EFE08F062F80F4B186204
:10241000AC6920460E4908F051F828B92046002141
:1024200008F02EF818B101E0094C00E00024204625
:102430004FF08F4107F086FE08F04AF8034B5862D0
:1024400070BDFFF775F9034B1870ABE660B2FF1F64
:1024500000FEFF4658AFFF1F2DE9F84F04F076FA53
:10246000B34C204602F008F8DFF868832046B149F3
:10247000424608F049FBB04C2046FEF781F8AF4DCC
:1024800020462946424608F03FFBAD48FEF778F863
:10249000AB482946424608F037FBAA48FEF770F8D9
:1024A000A8482946424608F02FFBA748FEF768F8DF
:1024B000A5482946424608F027FBA448FEF788F8BD
:1024C000A348FEF785F8A348FEF782F8A248FEF776
:1024D0007FF8DFF804A3504601210AF12402FDF73A
:1024E000FBFF9E4ECAF800604FF0FF35CAF8185047
:1024F0009B48012100F12402FDF7EEFF984B1E607E
:102500009D619848012100F12402FDF7E5FF954BFC
:102510001E609D619448012100F12402FDF7DCFF5B
:10252000914B1E609D61DFF8B4B2584601210BF15A
:102530002402FDF7D1FFCBF80060CBF81850DFF88C
:10254000A0924846012109F12402FDF7C5FFC9F810
:102550000060C9F818508548012100F12402FDF7F8
:10256000BBFF824B1E609D618148012100F1240266
:10257000FDF7B2FF7E4B1E609D617E4F3846FDF732
:10258000CFFF7D4E3046FDF7CBFF7C4D2846022124
:1025900005F11802FDF7A0FF794B2B60284600F0EB
:1025A00093FB78480460C0F804A0002404724472CD
:1025B000C46005F009FF7448614B0360684B4360D9
:1025C00004724472C46005F0FFFE70485D4B036006
:1025D000644B436004724472C46005F0F5FE6C48BD
:1025E000594B0360604B436004724472C46005F051
:1025F000EBFE6848554B0360C0F804B004724472A7
:10260000C46005F0E1FE6448514B0360C0F80490DB
:1026100004724472C46005F0D7FE60484D4B0360FD
:10262000524B436004724472C46005F0CDFE5C48B6
:10263000494B03604E4B436004724472C46005F022
:10264000C3FE5848C0F800A0476004724472C460DA
:1026500005F0BAFE5448424B0360476004724FF0E5
:10266000010A80F809A0C46005F0AEFE4F48C0F82A
:1026700000B0476004724FF0020B80F809B0C460EC
:1026800005F0A2FE4A48C0F80090476004724FF07F
:10269000030980F80990C46005F096FE4548314B67
:1026A0000360466004724472C46005F08DFE4248C7
:1026B0002D4B03604660047280F809A0C46005F0E9
:1026C00083FE3E48294B03604660047280F809B0DF
:1026D000C46005F079FE3A48254B036046600472F9
:1026E00080F80990C46005F06FFE364807604560C9
:1026F00004724472C46005F067FE334806604560AA
:10270000047280F809A0C46005F05EFE2F4D2846D3
:1027100004214A4602F076FA05F114000821062247
:1027200002F070FA2A480470802646735AE000BF0F
:1027300030A3FF1F99440000C0AFFF1FB504000085
:10274000D0ACFF1FB4B2FF1F3CB5FF1F10CEFF1F60
:10275000CCCDFF1F44CEFF1F74CEFF1F40F1000001
:10276000D0CEFF1FF8CEFF1F20CFFF1F74ACFF1F7E
:10277000A0CDFF1F5CAFFF1F60B2FF1F68CDFF1F22
:1027800060F1000060AAFF1FB0ACFF1FC0ACFF1FCC
:102790004CCDFF1F00CEFF1F30CDFF1F8CA3FF1FAE
:1027A00028AAFF1FA0B2FF1F9CACFF1F78C6FF1F07
:1027B0008CCDFF1F0CCDFF1F48B2FF1F4CCFFF1F5A
:1027C00010A3FF1F20A3FF1F78A3FF1F94AFFF1FBD
:1027D0001CCDFF1F6099FF1FA8CEFF1FCCBBFF1FA2
:1027E00038AAFF1F064D2946424608F08DF90548D4
:1027F000047046732946424608F086F9BDE8F88F12
:10280000CD04000064A3FF1F2DE9F04F83B00190B9
:1028100084693CB9002105F0A7FD00285AD005F0D5
:102820006DFD57E0B4F1FF3F0FD10198002105F095
:102830009BFD044600284DD001982146002205F05A
:102840007DFD204605F05AFD44E00198002105F089
:1028500097FD804600283DD0019BD3F81CC093F81B
:10286000209000231D4F9B464FF0FF3A4E46200E0E
:10287000C4F30F2108EB0302B2F90450C1F5803E06
:1028800037F91090013037F9100001FB00F109FB16
:102890000E11091401FB05F1C913918026B1E24321
:1028A000944506D2644407E0A44504D2CCEB04046A
:1028B00002E0544600E05C460233B3F5807FD6D197
:1028C000019B9C6118464146002205F037FD4046B9
:1028D00005F014FD03B0BDE8F08F00BF30EF00003D
:1028E00072B6836913B90123836105E0B3F1FF3F39
:1028F00004BF6FF001038361C16180F8202062B6DC
:10290000704700BF10B5044605F028FE204610BDF4
:1029100008B503480349044A08F0F6F808BD00BFAB
:1029200060CFFF1F052900006099FF1F08B503480D
:102930000349044A08F0E8F808BD00BF68CFFF1F4C
:10294000052900006099FF1F10B400F5807403682A
:1029500031FB03F231FB13F302F30F0203F30F0316
:10296000C2EA034340F8043B8442F0D15DF8044BD3
:10297000704700BF70B400F58076B2F5803F11D18A
:102980000023C258CC5892FA14F2C250C2185468AC
:10299000CD186D6894FA15F454600833B3F5807F50
:1029A000EFD112E051F8043B32FB03F532FB13F395
:1029B00005F30F0503F30F03C5EA0343046893FA15
:1029C00014F440F8044B8642ECD170BC704700BF51
:1029D0002DE9F04180460546002426466EB9404662
:1029E000214605F0CDFC0646A8B1A969B1F5803FA6
:1029F00011D00430FFF7A8FF0DE04046214605F056
:102A0000B3FC074638B1301D391DAA69FFF7B2FF84
:102A1000384605F073FC01340435042CDED13EB198
:102A200040463146002205F089FC304605F066FC40
:102A3000BDE8F08108B503480349044A08F064F88A
:102A400008BD00BF70CFFF1F052900006099FF1F60
:102A500070B5344B1A6812681979334B1970334BBF
:102A60009A420CD2324B1B786BB14FF08042314B03
:102A70001A60314D05F5807405F5007508E02E4C9F
:102A800004F5807504E02C4D05F5807405F500759E
:102A90002A4B1868D8B12A4B198800EB410304333C
:102AA00033F8022B24F8042BA542F9D840317F29B2
:102AB00002D8234B19800FE00026214B1E8005F021
:102AC0001DFC204B1A681D490A601E6004E00023AB
:102AD00024F8043BA542FBD8FE3C1B4B1868D8B138
:102AE0001A4B198800EB4103043333F8022B24F806
:102AF000042BA542F9D840317F2902D8134B198005
:102B000070BD0024114B1C8005F0F8FB104B1A68B7
:102B10000D490A601C6070BD002324F8043BA542E7
:102B2000FBD870BD7CCFFF1F1F8000403C92FF1F71
:102B300094CFFF1F08E200E03C91FF1F8CCFFF1FE6
:102B400078CFFF1F98CFFF1F84CFFF1F88CFFF1FB5
:102B500090CFFF1F10B50446002105F005FC01468B
:102B6000E0B172B61E4B1B6833B91D4B18600022D2
:102B70001C4B1A8062B611E01B4A12681AB91A4B34
:102B8000186062B60AE016480260174A1160002118
:102B9000144A118062B6184605F0B0FB20460121A8
:102BA00005F0E2FB0246D0B172B6104B186828B9A6
:102BB0001A6000220E4B1A8062B610BD0D4B1B68C6
:102BC0001BB90C4B1A6062B610BD08490B60094B6B
:102BD0001A600022064B1A8062B605F08FFB10BD0A
:102BE0008CCFFF1F78CFFF1F98CFFF1F84CFFF1F11
:102BF00088CFFF1F90CFFF1F30B4254B1A6842F4D7
:102C000000421A60234A116841F0020111601A68FB
:102C100042F002021A60204B1B68002B36DB1F4B70
:102C20001B68002B32DB4FF086421D4B1A6047F2C7
:102C3000540204331A600024A43B1C6001205C3B56
:102C40001860184A04331A604FF480310433196055
:102C5000154A04331A60154B154D2B60CC352C608A
:102C6000144C2060144C1548046004300160144971
:102C70000A60144A13604FF4C06302F5DF3202F5B4
:102C8000BA721360043213600C32136030BC7047A8
:102C90003C8004404080044000F0024080F002404C
:102CA00000F10240030000071B0F0100000F0F0F8F
:102CB00014F0024084F002400300004788F0024014
:102CC00090F0024094F0024038B5314D2846012181
:102CD00005F0E6FB00242F4B1C602F4B1C60FFF718
:102CE0008BFF4FF4C0622D4B1A602B681A682C4A78
:102CF0001A602B6802221A715C7101219971D971D5
:102D00001A725C729C72DC721C736FF001025A734F
:102D10004FF0FF329A73DA731A69224A1A611C75EE
:102D20005C75DA8A4FF48072DA821C765C769C7667
:102D3000DC76D98BDA839A8B06229A832B7903F17E
:102D4000804303F504331C708F221A7005F054FB86
:102D5000154B18702A79154B1A70154A136843F0F1
:102D6000124343F0010313602A7902F11001114864
:102D7000114B43F8210053119B0003F1604303F50D
:102D8000614302F01F02012101FA02F21A6038BD0C
:102D90007CCFFF1F8CCFFF1F84CFFF1F04B00440E8
:102DA0003C91FF1F20F0024094CFFF1F1B8000408A
:102DB00000F00240512A00000094FF1F08B50348AC
:102DC0000349044A07F0A0FE08BD00BF7CCFFF1FE7
:102DD000052900006099FF1F08B503480349044A0C
:102DE00007F092FE08BD00BF9CCFFF1F0529000021
:102DF0006099FF1F10B504460C2380F87F3280F8DD
:102E0000803200234366006F18B105F077FA002383
:102E10002367606F18B105F071FA0023636710BD76
:102E200038B5044672B690F87F320C2B1FD0006F75
:102E300000232367656F63670C2384F87F3262B6D3
:102E400008B105F05BFA15B1284605F057FA04F110
:102E5000180001F03DFC074B1B8823B1013B9BB2DE
:102E6000044A138023B95E2000F082FD38BD62B6AB
:102E700038BD00BFA4CFFF1F30B58FB004460D464C
:102E8000FFF7CEFF5E2000F059FD2E4B1A8801326D
:102E90001A8072B601A82946002201F01FFA9DF897
:102EA00008302377039B23629DF8103084F8243088
:102EB000059BA362069BE362079B2363089B6363F6
:102EC000099BA3639DF8283084F83C309DF8293095
:102ED00084F83D300EAB53F80E5D58689968C4F81D
:102EE0003E50C4F84200C4F846101B7B84F84A30B8
:102EF00001A801F0D1FA62B694F83D30032B0DD948
:102F0000104B1B882BB1013B9BB20E4A1380002053
:102F1000ABB95E2000F02CFD002010E00023A4F8E7
:102F20007C32A4F87A320C2284F880221422626661
:102F300084F87E32082384F87F320120FFE70FB047
:102F400030BD00BFA4CFFF1F30B58FB004460D4683
:102F500001325202C0F88422FFF762FF72B601A864
:102F60002946002201F0BAF99DF808302377039B27
:102F700023629DF8103084F82430059BA362069BE1
:102F8000E362079B2363089B6363099BA3639DF82C
:102F9000283084F83C309DF8293084F83D300EAB61
:102FA00053F80E5D58689968C4F83E50C4F8420062
:102FB000C4F846101B7B84F84A3001A801F06CFA73
:102FC00062B694F83D30032B0DD9114B1B882BB101
:102FD000013B9BB20E4A13800020BBB95E2000F07B
:102FE000C7FC002012E00023A4F87C32A4F87A3257
:102FF0000C2284F880221422626684F87E3201203A
:1030000084F88202082384F87F32FFE70FB030BDD6
:10301000A4CFFF1FC36C9AB2012A2AD1026D4AF6CF
:1030200044418A420AD045F222618A4209D042F6DE
:1030300011318A421FD11349042204E012490022AF
:1030400001E0124904221B0C012B04D0022B14D1E5
:10305000490842F00102B0F85A30082B04D0102B76
:103060000DD1490842F00202C16680F88022012099
:1030700070470020704700207047002070470020F4
:10308000704700BF40EE3517907BCD0520F79A0BB7
:103090002DE9F84F0446B0F87A6206447A360D46B8
:1030A000002900F0C1814FF008090027DFF890B334
:1030B000DFF890A302E0002D00F0B98194F87F3290
:1030C0000C2B00F2A981DFE813F0B501B501E8008F
:1030D0003601B501B501B501B5010D004F007F0006
:1030E000CC00B501636E9D4234BFA846984604F1FA
:1030F0004C0094F87E3218443146424603F04EF9B3
:1031000094F87E32434484F87E32B4F87A324344F1
:10311000A4F87A32636EC8EB03036366002B40F0B9
:103120009381E36C534540F07781636DC34A9342CA
:1031300040F07281A36D02F15B4202F5F11202F6DA
:103140000F42934240F06881E36DA3F11002082A18
:1031500000F262814644C8EB0505636684F87E721E
:10316000092384F87F32A6E7636E9D4234BFA846E8
:10317000984604F14C0094F87E3218443146424699
:1031800003F00CF994F87E32434484F87E32B4F8AC
:103190007A324344A4F87A32636EC8EB0303636661
:1031A000002B40F054812046FFF734FF002800F048
:1031B00033814644C8EB0505C4F8649084F87E72F8
:1031C0000A2384F87F3276E7636E9D4234BFA846B7
:1031D000984604F14C0094F87E3218443146424639
:1031E00003F0DCF894F87E32434484F87E32B4F87D
:1031F0007A324344A4F87A32636EC8EB0303636601
:10320000002B40F027814644C8EB0505236D63661B
:10321000E36C5B4521D194F8823263B104F118006C
:10322000D4F8841201F028FA84F88272626ED4F81D
:103230008432D31A636684F8817294F8803284F8F9
:103240007F3213F0010F05D004F0FCFF6067002807
:1032500000F00381636EA3662DE70B2384F87F32B1
:1032600029E7636EAB4209D95B1B6366B4F87A3217
:103270001D44A4F87A520020BDE8F88F1E44ED1AD0
:10328000B4F87A221344A4F87A32C4F8649084F82B
:103290007E720A2384F87F320DE7636E9D4228BF59
:1032A0001D465B1B6366023616F8021C16F8010CFD
:1032B000023D226FB4F8783003F1010CA4F878C015
:1032C00002EB430341EA00229A80B4F878307F2B66
:1032D00024D92046216F002205F030F82046216FC6
:1032E000012205F02BF8206F05F008F80023236772
:1032F000636E1D44656604F17A03F71AA4F87A72C6
:10330000606F08B104F0FAFF636E002B40F0A880F4
:103310000C2384F87F320120BDE8F88F0236002D9F
:10332000C2D1636E002B40F09E800C2384F87F3264
:103330000020BDE8F88F636E9D4228BF1D465B1BD1
:10334000636694F8813243B1236FB4F8782003EBBD
:103350004202E36C938019E03E4633787278023D76
:103360000BD1616E002951D043EA0223E3640223AA
:1033700084F881320020BDE8F88F0236216FB4F85E
:10338000780001EB400143EA02238B80374617F8AF
:10339000021B7078023D626FB4F878305E1CA4F8AE
:1033A000786002EB430341EA00229A80B4F8783057
:1033B0007F2B22D92046216F002204F0BFFF206F0F
:1033C00004F09CFF002626672046616F012204F06E
:1033D000B5FF606F04F092FF6667636E1D4465661B
:1033E00004F17A03FF1AA4F87A72002D3ED10C235F
:1033F00084F87F320120BDE8F88F002DACD1636ED8
:1034000023B1002084F88102BDE8F88F0C2384F8F2
:103410007F320020BDE8F88F0C2384F8803284F8D6
:103420007F320020BDE8F88F0020BDE8F88F002033
:10343000BDE8F88F0020BDE8F88F00BF5741564522
:1034400064617461524946460020BDE8F88F00204F
:10345000BDE8F88F0020BDE8F88F0020BDE8F88FA8
:103460000120BDE8F88F0020BDE8F88F0120BDE8FD
:10347000F88F00BF90F87F32072B05D8C36E826E9D
:10348000A2FB0323184670470020704790F87F3254
:10349000072B94BF806E0020704700BF2DE9D847EE
:1034A000044690F87F320C2B00F0AD8004F0CAFE89
:1034B0002067002800F0A78094F87F32072B0BD8F4
:1034C00013F0010F08D004F0BDFE606730B9206F23
:1034D00004F014FFBDE8D887002363670023A4F835
:1034E0007830B4F87C12B4F87A32C91A002905DDB4
:1034F0002046FFF7CDFD002840F0858094F87F320C
:103500000C2B2CD004F11806304600F0A5FF30B388
:1035100004F17A084FF400774FF000093046414635
:103520003A4600F0BFFF83B2A4F87C32BBB1A4F8E6
:103530007A9294F87FA220461946FFF7A9FD20B1A0
:1035400094F87F320C2B5ED109E094F87F320C2B7B
:1035500005D0BAF1070F16D9072BDFD913E004F114
:10356000180001F0B5F8294B1B8823B1013B9BB231
:10357000264A138013B95E2000F0FAF90C2384F870
:10358000803284F87F32236F1BB3B4F87820DAB12D
:1035900013467F2A07D80021226F02EB4302918055
:1035A0000133802BF8D12046216F002204F0C6FEA3
:1035B00094F87F32072B07D813F0010F04D120466F
:1035C000216F012204F0BAFE206F04F097FE002361
:1035D0002367636FBBB1B4F878207AB113467F2AB2
:1035E00007D80021626F02EB430291800133802BE8
:1035F000F8D12046616F012204F0A0FE606F04F054
:103600007DFE00236367BDE8D88700BFA4CFFF1FFE
:103610000B4B1B7813B90B4B1B7873B10A4B1B7800
:10362000202B03D90123037100207047581C064A40
:103630001070064AD154012070470020704700BF27
:103640000ED0FF1FD0CFFF1F0FD0FF1FACCFFF1F2B
:10365000704700BF024B1878024B1B78C01A7047A6
:103660000DD0FF1F0CD0FF1F074B1B78074A1278A5
:103670009A4205D9591C044A1170054AD05C70471A
:103680004FF0FF30704700BF0CD0FF1F0DD0FF1F61
:10369000D4CFFF1F054B1B78054A12789A4286BF8C
:1036A000044AD05C4FF0FF30704700BF0CD0FF1FC2
:1036B0000DD0FF1FD4CFFF1F08B5104BDB7813F0E0
:1036C000200F0CD1122003F0E1FB0D4B1B689BB1C6
:1036D00000210C4A11700C4A1078984708BD0B4A1B
:1036E00013780133DBB21370012B02D8084B1B781F
:1036F00013B9122003F0CAFB08BD00BF00600640EA
:10370000A8CFFF1F0CD0FF1F0DD0FF1FF8CFFF1F4A
:10371000D0CFFF1F38B514460D4B1B7813B90D4B96
:103720001B7893B10C4B1D78C5F12103A34202D243
:10373000012202711C4609482844224602F02EFE4E
:103740002544054B1D70204638BD002038BD00BF04
:103750000ED0FF1FD0CFFF1F0FD0FF1FACCFFF1F1A
:10376000002202714FF47A7181600273014A026093
:10377000704700BF80F1000008B53D4BDB78DBB23D
:1037800013F0100F06D01021394AD17013F0400FFA
:1037900003D108BD13F0400F2CD013F0040F1BD041
:1037A0000023344A1370344A1370344B1B681BB126
:1037B0009847314B1B782BB901222F4B1A700022EE
:1037C0002F4B1A702A4BD0229A702D4A12781A71F8
:1037D00001222C4B1A7009E00122264B1A7000229C
:1037E000294B1A70224BC0229A701B790222204B5F
:1037F000DA7008BD1E4A927812F0100F1CD013F038
:10380000010F14D11F4B1B781B4A12789A4207D91B
:10381000591C1C4A11701A4AD25C154B1A7102E0ED
:103820000022134B1A71D022114B9A701BE0104BDF
:10383000C0229A701B7916E00022144B1A701220D5
:103840001349032203F0DAFA094B1B79DAB20E4B63
:103850001B781F2B07D80749097821B1581C0A4942
:1038600008700C49CA540222014BDA7008BD00BF2F
:1038700000600640A6CFFF1F0FD0FF1FF4CFFF1F31
:10388000ACCFFF1F10D0FF1F0DD0FF1FF8CFFF1FC1
:10389000B9360000D4CFFF1F08B50248FFF760FF1C
:1038A00008BD00BFFCCFFF1F184B1A6842F48052BE
:1038B0001A60174B174A1A60174ADA6002F1804201
:1038C0001A61164A1A60164B1B7813F0010F07BFD6
:1038D0004FF41072134B4FF40072134B1A60104BDD
:1038E0001B7813F0020F4FF400720CBF0F4B104BFC
:1038F0001A600B4B1B7813F0040F07BF4FF41072C4
:103900000C4B4FF400720C4B1A6070473C80044023
:1039100000C0024001401F000110003800001F805D
:1039200002E1FF1F18B0044008C004401CB004406E
:103930000CC0044014B0044004C0044030B45E28FD
:1039400010D84309084A012101FA03F514782C43E1
:103950001470064A00F01F00814052F823400C43C7
:1039600042F8234030BC70472CD0FF1F14D0FF1FFB
:103970005E2815D8430900F01F00012202FA00F06A
:10398000084A52F8231021EA000042F8230038B90F
:10399000054A012101FA03F3117821EA03031370A8
:1039A000704700BF14D0FF1F2CD0FF1F0368BBB1AE
:1039B00000290BDD72B6036893F805221144FF2934
:1039C000A8BFFF2183F8051262B6704772B603687C
:1039D00093F80522114421EAE17183F8051262B6D9
:1039E000704700BF03684BB172B6036893F80422B6
:1039F000013A83F8042262B600230360704700BFD7
:103A000010B4036853B1D3F800228A421CD093F853
:103A10000422013A83F80422002303600C4B03F6CE
:103A2000386493F8062252B1D3F800228A4206D1B4
:103A3000036093F80422013283F8042204E003F5C2
:103A40000273A342EDD3002318465DF8044B704780
:103A500030D0FF1F70B50D461646364B1B78002B35
:103A600028D072B6334B1B7813F0010F07D0324BBE
:103A70001968324A12680A4031490A601A602D4BAF
:103A80001B7813F0020F07D02E4B19682B4A52688F
:103A90000A402B494A601A60264B1B7813F0040F2A
:103AA00007D0294B1968254A92680A4024498A6040
:103AB0001A6062B6254BDA68254B9A4209D0234B2F
:103AC000244A1A60224ADA6002F180421A61224ACC
:103AD0001A602946FFF794FF044628B92846314664
:103AE00000F0D4F9054600E00125124B1B78C3B164
:103AF00013F0010F03D0124B1A68184B1A600D4BCC
:103B00001B7813F0020F03D00D4B5A68144B1A6048
:103B1000084B1B7813F0040F03D0094B9A68114B24
:103B20001A602CB1304621464FF4007202F036FC88
:103B3000284670BD2CD0FF1F80E100E014D0FF1F8D
:103B400020D0FF1F84E100E088E100E000C00240D7
:103B5000000001B801401F0000001F8000E100E0EC
:103B600004E100E008E100E010B40C4BFF24002069
:103B700003F6386193F8042232B993F80522A24281
:103B800002D232B11446184603F502738B42F1D3C8
:103B900000E018465DF8044B704700BF30D0FF1FAF
:103BA0002DE9F04104460D4617463F4B1B78002B8C
:103BB00028D072B63C4B1B7813F0010F07D03B4B5B
:103BC00019683B4A12680A403A490A601A60364B43
:103BD0001B7813F0020F07D0374B1968344A52682C
:103BE0000A4034494A601A602F4B1B7813F0040FC7
:103BF00007D0324B19682E4A92680A402D498A60D4
:103C00001A6062B62E4BD9682E4B994209D02C4BC4
:103C10002D4A1A602B4ADA6002F180421A612B4A5F
:103C20001A6020462946FFF7EBFE0646E0B920461B
:103C3000FFF79AFF8046A0B106462846414600F0AD
:103C400025F980B1C4F80080C8F80052012388F833
:103C5000043217B988F8063206E0052388F80632E0
:103C600002E0002600E000260F4B1B78C3B113F0E2
:103C7000010F03D00F4B1A68154B1A600A4B1B78C3
:103C800013F0020F03D00B4B5A68124B1A60064B0D
:103C90001B7813F0040F03D0064B9A680E4B1A6082
:103CA0003046BDE8F08100BF2CD0FF1F80E100E06E
:103CB00014D0FF1F20D0FF1F84E100E088E100E066
:103CC00000C00240000001B801401F0000001F803A
:103CD00000E100E004E100E008E100E01B4B1B68AC
:103CE000012283F800211A4B4FF00042DA62020AE7
:103CF0005A631A46D36A002BFCDA154B9A6B4FF0C5
:103D00000042DA620A0C42F080525A631A46D36AC1
:103D1000002BFCDA0E4B9A6B4FF00042DA6289B24C
:103D200041F0805159631A46D36A002BFCDA084BE4
:103D30009A6B4FF00042DA62C0B258631A46D36AF7
:103D4000002BFCDA024B9B6B704700BF68DEFF1F45
:103D500000C0024030B40921094A4FF00045FF2459
:103D6000D5625463D36A002BFCDA906B10F0800F9D
:103D700003D04B1E13F0FF01F2D1C0B230BC70472C
:103D800000C002400D4B4FF00042DA620C4A5A6309
:103D90001A46D36A002BFCDA084B986B00044FF0EC
:103DA0000042DA62064A5A631A46D36A002BFCDAEA
:103DB000024B9B6B9BB21843704700BF00C0024090
:103DC000FFFF0010084B1B68012283F88020074B7F
:103DD0004FF00042DA62FF225A631A46D36A002B80
:103DE000FCDA024B9B6B704768DEFF1F00C002408D
:103DF00010B544F295000021FFF770FFFFF7AAFF0E
:103E00000446FFF7DFFF204610BD00BF10B544F6A3
:103E100087004FF4D571FFF761FFFFF79BFF012883
:103E200018BF4FF0004403D1FFF7ACFF0446FFE793
:103E3000FFF7C8FF204610BD10B5044647F2FF70DB
:103E40000021FFF74BFFFFF785FFFFF7BBFF46F6AB
:103E5000FF102146FFF742FFFFF77CFF0446FFF704
:103E6000B1FF204610BD00BF10B547F6FF2000216E
:103E7000FFF734FFFFF76EFF18B9FFF783FF044623
:103E800000E00024FFF79EFF204610BD70B50346FA
:103E90000D46324A1278012A98BF430245F2FF10BC
:103EA0001946FFF71BFFFFF755FF18B1FFF78AFF11
:103EB000002070BD2A4A4FF00044FF20D4625063B6
:103EC000D36A002BFCDA936BDBB2FE2B05D0FF2B01
:103ED000F4D0FFF777FF002070BD05F5FF76204B8B
:103EE000204A5A635A63B54213D2A81C05F50075DF
:103EF0001A461C4CD36A13F0F00FFBD05463936B3B
:103F0000190A00F8021C00F8013C0230A842F1D165
:103F100000E02E46124AD36A13F0F00FFBD0104B8C
:103F20009B6B1A0A327073700D4AD36A13F0F00F4C
:103F3000FBD00B4B9A6B0C4A1268012182F880105F
:103F40004FF00042DA62FF225A631A46D36A002B0E
:103F5000FCDA034B9B6B012070BD00BF6CDEFF1FC2
:103F600000C00240FFFF001068DEFF1F10B40023F6
:103F70000361CB6943618A8A4B8B43EA02438361C5
:103F8000C361CB7A03F01003DBB2002B0CBF00231C
:103F9000022380F825300A78202A08BF00F1260382
:103FA00008D020E014F8012F202A03D003F8012BB9
:103FB0008342F7D10A7A202A12D02E221A700A7A66
:103FC0005A704A7A202A02D1981C093102E0D81C82
:103FD0000A319A700A78202A1ABF431C02700346DD
:103FE00000221A7006E000F1270380F826200C4614
:103FF0002E30D7E75DF8044B704700BF2DE9F04F36
:1040000087B082460D46144600F036FA002C40F088
:10401000A38095F82530032B08D12B695C0AAB6986
:10402000E31801936B695B0A039318E0022B40F0DD
:1040300093804B4B1B7803F10900012202FA00F038
:104040000138296901404C0AE969023901FA03F093
:10405000444909680144214401919A4003922E6920
:10406000C6F34316DFF800B1DFF80091CDF808A0E1
:10407000A246002206A840F8042D0199FFF790FD02
:1040800000285BD000EB46173C4607F50077A7EB0E
:1040900046174FF00B08E37A0F2B29D02378002B1B
:1040A0004FD0E52B24D020464946424607F010F871
:1040B000F0B120465946424607F00AF8C0B1DDF893
:1040C00008A050462146FFF751FF05A8FFF78AFCDC
:1040D0002B6920332B61224A12780932012101FA1F
:1040E00002F2013A1A422ED1284600F067F92AE07E
:1040F0002B6920332B612034BC42CCD105A8FFF7BB
:1041000071FC0AF1010A039B534512D895F825303A
:10411000032B1CD0284600F051F9C0B1EB69023BDB
:104120000F4A127893400F4A12689A1801924FF082
:10413000000A05A8FFF756FC00269AE7DDF808A05C
:1041400001E0DDF808A005A8FFF74CFC04E0DDF86D
:1041500008A005A8FFF746FC504607B0BDE8F08F61
:1041600078DEFF1F74DEFF1FA4F1000098F100004D
:104170002DE9F04F87B0064691460B784BB99FE08A
:1041800011F8013F63B99CE002F8011B9A42FBD38E
:1041900021E003AA05A820240DF1150C0DF1170547
:1041A0002E2B0BD1824214D2134603F8014B8342CB
:1041B000FBD1531CC3EB0C031A440AE07E2B08D836
:1041C000A3F16107FFB2192F9CBF203BDBB2137034
:1041D0000132AA42D4D396F82530032B05D1D6F864
:1041E00018B073695B0A01930EE0022B64D1B269C7
:1041F000F261384B1B78023A02FA03FB364A126826
:10420000934401229A4001920021009101278A469D
:1042100039E006A840F810AD59465246FFF7C0FCF9
:10422000044648B355464FF00B08204603A94246C2
:1042300006F04EFF28B948462146FFF797FE0124B5
:104240001DE023783FB10BB1E52B05D1C9F820B0B3
:1042500089F8245057468BB13369203333612034B9
:104260000135102DE1D10BF1010B02A8FFF7BAFBCC
:10427000009A0132009206E0002400E0002402A827
:10428000FFF7B0FB21E0009B01998B42C1D396F868
:104290002530032B12D0304600F090F80446A0B130
:1042A000F369023B0B490A7803FA02FB0A4A1368D6
:1042B0009B44CDF800A0E6E7002406E0002404E0DB
:1042C00003AA20210DF117035EE7204607B0BDE8E1
:1042D000F08F00BF78DEFF1F74DEFF1FF0B58FB0D8
:1042E00004460F461646324B1A798DF808209A6814
:1042F00003921A7B8DF810202E4A01921A690592BA
:104300005A6906929D690795DD6908951D6A0995A8
:1043100093F824208DF8282093F825208DF8292063
:1043200053F8265F59689A68CDF82A50CDF82E10B8
:10433000CDF832201B7B8DF8363000F09DF8002E32
:1043400030D138461C4907F0CBF930BB184B1A79ED
:1043500022719A68A2601A7B22731A6922615A69D3
:1043600062619A69A261DA69E2611A6A226293F86B
:10437000242084F8242093F8252084F8252053F85D
:10438000265F58689968C4F82650C4F82A00C4F813
:104390002E101B7B84F8323004E001A839462246F7
:1043A000FFF7E6FE01A800F077F820460FB0F0BD59
:1043B0007CDEFF1FB8F1000084EC000030B583B054
:1043C000044600230193174B1968C569164B1B78E7
:1043D000102B0AD101A801EB15210122FFF7E0FB08
:1043E000B0B1EDB230F815300AE001A801EBD511FB
:1043F0000122FFF7D5FB68B105F07F0550F82530A5
:10440000E3610A4A1468A3428CBF0024012402E03D
:10441000002400E0002401A8FFF7E4FA204603B0DE
:1044200030BD00BFB0DEFF1FB4DEFF1FB8DEFF1FD0
:1044300010B582B002AB03F8011D0268546819463A
:104440000122A04702B010BD90F82530012B1CBFFF
:10445000012303710020704790F82530012B07D805
:1044600003694069C01A0028B8BF6FF00040704768
:1044700000207047704700BF002202714FF47A712C
:104480008160027303490160042180F8251080F8DF
:1044900026207047B8F10000014B0360704700BF51
:1044A000B8F100002DE9F04F83B00646884690F839
:1044B0002530012B00F2B08003694169C91A8A4294
:1044C00034BF91468946B9F1000F00F0A780564AE3
:1044D000127802F10901012000FA01F101390B40C3
:1044E000F1698C1E9440514A1068044404EB532433
:1044F000C3F30805002D45D0002202A840F8042D82
:104500002146FFF74DFB014658B3C5F5007BCB456F
:104510000DD9404629444A4601F040FF33694B44D7
:10452000336101A80121FFF741FA4D461AE04046E8
:1045300029445A4601F032FF33695B44336101A8D4
:104540004FF0FF31FFF732FA01A8FFF74BFA0134C1
:10455000354B1B78012202FA03F3013B1C420BD1BD
:1045600004E0002501A8FFF73DFA58E03046FFF7C8
:1045700025FF08B95D4652E0CB4501D2D84403E09F
:104580005D464CE04FF0000BCBEB09075D46CBEBF3
:10459000080BDFF894A00BEB050800230193B7F597
:1045A000007F13D201A821461A46FFF7F9FA014607
:1045B00028B340463A4601F0F1FE33693B4433618B
:1045C00001A80121FFF7F2F94D4618E001A82146A4
:1045D0004246FFF73FFA90B1336903F50073336148
:1045E00005F5007501A8FFF7FDF901349AF80030D0
:1045F000012202FA03F3013B1C4208D103E001A8A7
:10460000FFF7F0F90BE03046FFF7D8FE38B1A7F519
:104610000077A945BFD802E0002500E00025284624
:1046200003B0BDE8F08F00BF78DEFF1F74DEFF1F10
:1046300000B583B00DF107010122FFF733FF012818
:104640000CBF9DF807004FF0FF3003B05DF804FB8E
:1046500070B582B004460669C5690DF107010122F3
:10466000FFF720FF012803BF2661E5619DF80700E1
:104670004FF0FF3002B070BDF8B505460E4690F819
:104680002530012B1DD843698B421CD3C7690F4BC2
:104690001B78093321FA03F4026922FA03F3E31ABF
:1046A00052BF1C468369C36144B12846FFF786FEAA
:1046B000034608B9EF6107E0013CF6D12E61012302
:1046C00002E0002300E000231846F8BD78DEFF1F5B
:1046D000704700BF2DE9F04F83B07A4D7A4B53F805
:1046E00030302B600124794B1C70214602F028FCED
:1046F0002B6883F88040FFF7D7F8754B1B78002BA9
:1047000028D072B6724B1B7813F0010F07D0714B93
:104710001968714A12680A4070490A601A606C4B45
:104720001B7813F0020F07D06D4B19686A4A526864
:104730000A406A494A601A60654B1B7813F0040FFF
:1047400007D0684B1968644A92680A4063498A60D6
:104750001A6062B6644BDA68644B9A4209D0624BC5
:10476000634A1A60614ADA6002F180421A61614A62
:104770001A6005215C4A4FF000445F48D4625063E0
:10478000D36A002BFCDA936B4B1E13F0FF01F5D1BB
:104790005A4B1D684E4CDFF87491DFF86CA1DFF8BE
:1047A00044814F4F4B4EFFF723FB012855D0237810
:1047B000B3B113F0010F03D0484B1A68504B1A6085
:1047C000237813F0020F03D0444B5B68CAF8003023
:1047D000237813F0040F03D0404B9B68C9F80030D6
:1047E000464B1B685B1BFA2B00F2B981237823B37D
:1047F00072B6237813F0010F06D03268364B1B686F
:104800001340364A13603360237813F0020F06D04A
:104810003A68314B5B681340304A53603B60237801
:1048200013F0040F08D0D8F800202B4B9B681340DE
:104830002A4A9360C8F8003062B62B4BDA682B4BDB
:104840009A42B0D0284B2A4A1A60284ADA6002F10C
:1048500080421A61274A1A60A5E7FFF7D7FAB0F13C
:10486000004F04D10122274B1A70002550E0B0F50B
:10487000D57F05D10222234B1A704FF0804547E0C7
:10488000134B1B78002B00F06C8113F0010F03D049
:10489000124B1A681A4B1A600D4B1B7813F0020F5B
:1048A00003D00E4B5A68184B1A60094B1B7813F053
:1048B000040F00F05881094B9A68144B1A600024C9
:1048C00056E100BF68DEFF1F28F200006DDEFF1F0B
:1048D0002CD0FF1F80E100E014D0FF1F20D0FF1F6D
:1048E00084E100E088E100E000C00240000001B87F
:1048F00001401F0000001F80FFFF001050DFFF1F5E
:1049000000E100E06CDEFF1F04E100E008E100E0F0
:10491000994B1E68994CDFF890A2DFF888B2DFF857
:10492000A492DFF8A482964F2846FFF785FA024644
:1049300000285CD02378B3B113F0010F03D0914B62
:104940001968914B1960237813F0020F03D08D4B37
:104950005B68CBF80030237813F0040F03D0894B49
:104960009B68CAF80030012A00F2FF80824B1A6867
:10497000921B40F2DC539A4200F2F980237833B361
:1049800072B6237813F0010F06D03A687F4B1B688C
:1049900013407C4A13603B60237813F0020F08D069
:1049A000D8F80020794B5B681340764A5360C8F80A
:1049B0000030237813F0040F08D0D9F80020734B8F
:1049C0009B6813406F4A9360C9F8003062B6704B21
:1049D000DA68704B9A42A7D06D4B6F4A1A606D4AE5
:1049E000DA6002F180421A616C4A1A609CE76C4BF3
:1049F0001B78022B07D1FFF737FA800F032802D16B
:104A00000322674B1A705D4B1B78C3B113F0010F83
:104A100003D05C4B1A685C4B1A60584B1B7813F040
:104A2000020F03D0574B5A685E4B1A60534B1B78EA
:104A300013F0040F03D0534B9A685B4B1A600022AB
:104A400002A840F8042D1146FFF7AAF8B0F8FE219D
:104A50004AF655239A4273D190F8C2310B3BDBB230
:104A6000012B94BFD0F8C641002401A8FEF7BAFF7D
:104A700001A821460022FFF793F8B0F8FE214AF67C
:104A800055239A425ED1B0F80B30B3F5007F5BD16D
:104A9000037C022B5AD1C289002A59D0467BB6FA30
:104AA00086F6C6F11F06414B1E70C38A03B9436ADE
:104AB000B0F8115005F11F0E4FEA5E1EB0F813104A
:104AC00001B9016A14443A4F3C601F19DFF8FCC079
:104AD000CCF8007007EB030C364FC7F800C08A1AF9
:104AE000CEEB0202A2EB4303F340591C324A1160A1
:104AF00040F6F47293422DD94FF6F47293420AD8DD
:104B000010222E4B1A702E4B6D015D619C610322A9
:104B100083F825200AE02022284B1A70284B002217
:104B20005A61C26A9A61022283F82520244B9A694D
:104B3000DA6100221A6101A8FEF754FF01240AE09D
:104B4000002408E0002406E0002404E0002402E041
:104B5000002400E0002401A8FEF744FF08E0002440
:104B600006E0002404E0002402E0002400E0002429
:104B7000204603B0BDE8F08F50DFFF1F2CD0FF1F91
:104B800080E100E020D0FF1F00E100E014D0FF1F13
:104B900000C00240000001B801401F0000001F805B
:104BA0006CDEFF1F04E100E008E100E078DEFF1F9B
:104BB000B0DEFF1F74DEFF1FB8DEFF1FB4DEFF1F75
:104BC0007CDEFF1F88E100E084E100E070DEFF1F73
:104BD00010B5054C2046FFF74FFC20460349044A18
:104BE00005F092FF10BD00BF7CDEFF1F994400005E
:104BF0006099FF1F014A024B1A607047032000387A
:104C0000BCDEFF1F38B504460025C5600B4B0361B1
:104C1000417282720846022102F092F9A07A0221C2
:104C200002F08EF9607A012102F058F9A07A012190
:104C300002F054F92572204638BD00BF19FCFFFF71
:104C400038B50446807A02F06DF90546607A02F0C4
:104C500069F940EA4500C0B2237A03F00F0300EB84
:104C60008303084AD35C237203F03003102B03D173
:104C7000E3680133E36038BD202B02D1E368013BD8
:104C8000E36038BDD0F10000C26803699A420AD0DF
:104C9000C2689342B4BF01234FF0FF330360C3687F
:104CA0000361012070470020704700BF436853B183
:104CB000C26892FBF3F003FB1020184490FBF3F260
:104CC00003FB12007047C068704700BFC1600161FC
:104CD000704700BF08B50A20012102F031F90A200F
:104CE000012102F0FBF8204A137823F0020343F07D
:104CF000050313701D4B196841F4805119601C4B5A
:104D00001C4919604FF03841D9604FF07841196162
:104D10004FF40070184908601020184908701849AD
:104D20001960137813F0010F07BF4FF41072154B81
:104D30004FF40072144B1A600B4B1B7813F0020FE8
:104D40004FF400720CBF114B114B1A60064B1B78CD
:104D500013F0040F07BF4FF410720E4B4FF40072A4
:104D60000D4B1A6008BD00BF02E1FF1F3C800440EC
:104D700000C0024001401F8000B0044008E1FF1F56
:104D8000000C1F8018B0044008C004401CB0044050
:104D90000CC0044014B0044004C0044070B5044684
:104DA0000E4615465E20FEF7C9FD814B1A8801327A
:104DB0001A8072B6C6F307427E4B1B78190473B192
:104DC00041F0104343F4306313437B494B630A467D
:104DD000D36A03F47043B3F5405FF9D812E0774B20
:104DE0001B680021197074494FF08053CB62134344
:104DF00043F430634B630A46D36A03F47043B3F55C
:104E0000405FF9D86B4B1B781A046BB142F010422B
:104E1000B3B21A43684B5A631A46D36A03F4704319
:104E2000B3F5405FF9D812E0644B1B6800221A709A
:104E3000614B4FF08052DA62B2B242F080525A6354
:104E40001A46D36A03F47043B3F5405FF9D8594B5F
:104E50001B781A045BB142F00042574B5A631A4662
:104E6000D36A03F47043B3F5405FF9D80FE0534BB6
:104E70001B6800221A70504B4FF08051D9625A6360
:104E80001A46D36A03F47043B3F5405FF9D84A4A2F
:104E9000D36A13F0F00FFBD0474B9B6B464AD36AA3
:104EA00013F0F00FFBD0444B9B6B434AD36A13F0D3
:104EB000F00FFBD0404B9B6B3E4B1B781A045BB151
:104EC00042F010423C4B5A631A46D36A03F47043D3
:104ED000B3F5405FF9D80FE0384B1B6800221A7019
:104EE000354B4FF08052DA625A631A46D36A03F4A4
:104EF0007043B3F5405FF9D82E4B1B781A045BB1B1
:104F000042F080522C4B5A631A46D36A03F4704322
:104F1000B3F5405FF9D813E0284B1B6800221A70E4
:104F2000254B4FF08052DA624FF0C0525A631A4656
:104F3000D36A13F0805FFBD0204B1B6801221A70EC
:104F40000023A385043626621B4AD36A13F0F00FB0
:104F5000FBD0194B9A6B52BA62621946CB6A13F0B6
:104F6000F00FFBD0144B9B6B03F47F4142EA01220C
:104F700003F0030184F82E10C3F3C013A36294F866
:104F80002E30DBB2012B07D094F82E30DBB2022B8F
:104F900014BF0523062300E007239D40AA429CBFBF
:104FA00022FA03F59D40E561521B626262B670BD54
:104FB000A4CFFF1F08E1FF1F00C0024004E1FF1F54
:104FC00008B572B6002380F82F30C36190F82E30F8
:104FD00013F0FF0F0FD0002380F82E3062B6074B7E
:104FE0001B8823B1013B9BB2044A138023B95E2086
:104FF000FEF7BEFC08BD62B608BD00BFA4CFFF1F10
:1050000038B504460D46FFF7DBFF5E20FEF796FC41
:10501000764B1A8801321A8072B6C5F30742744B78
:105020001B78190473B141F0104343F43063134308
:1050300070494B630A46D36A03F47043B3F5405F8B
:10504000F9D812E06C4B1B680021197069494FF0C8
:105050008053CB62134343F430634B630A46D36AF5
:1050600003F47043B3F5405FF9D8614B1B781A0421
:105070006BB1ABB21A4342F010425E4B5A631A4610
:10508000D36A03F47043B3F5405FF9D812E05A4B8A
:105090001B6800221A70574B4FF08052DA62AAB296
:1050A00042F080525A631A46D36A03F47043B3F550
:1050B000405FF9D84E4B1B781A045BB142F00042B6
:1050C0004C4B5A631A46D36A03F47043B3F5405FFE
:1050D000F9D80FE0484B1B6800221A70454B4FF07F
:1050E0008051D9625A631A46D36A03F47043B3F508
:1050F000405FF9D83F4AD36A13F0F00FFBD03D4B25
:105100009B6B3C4AD36A13F0F00FFBD0394B9B6B7F
:10511000384AD36A13F0F00FFBD0364B9B6B344BFD
:105120001B781A045BB142F01042324B5A631A46A4
:10513000D36A03F47043B3F5405FF9D80FE02E4B08
:105140001B6800221A702B4B4FF08052DA625A63B0
:105150001A46D36A03F47043B3F5405FF9D8244B81
:105160001B781A045BB142F08052224B5A631A46F4
:10517000D36A03F47043B3F5405FF9D813E01E4BD4
:105180001B6800221A701B4B4FF08052DA624FF0FE
:10519000C0525A631A46D36A13F0805FFBD0164B95
:1051A0001B6801221A700023A38504352562114A69
:1051B000D36A13F0F00FFBD00E4B996B49BA6162C2
:1051C0001A46D36A13F0F00FFBD00A4B9B6B03F423
:1051D0007F4241EA0221616203F0030284F82E203B
:1051E000C3F3C013A36262B638BD00BFA4CFFF1FD4
:1051F00008E1FF1F00C0024004E1FF1F2DE9F04F4E
:1052000083B0044690F82F3013F0FF0F40F0F08485
:1052100090F82E3003F0FF05002B00F0E98403F036
:1052200011F80190002800F0E384E269A36A9A4033
:10523000236AD118C1F30742A54B1B78180473B138
:1052400040F0104343F430631343A24843630246E3
:10525000D36A03F47043B3F5405FF9D812E09E4B74
:105260001B68002018709B4B4FF08050D86202439F
:1052700042F430625A631A46D36A03F47043B3F5BA
:10528000405FF9D8924B1B781A046BB142F0104280
:1052900089B20A438F4B5A631A46D36A03F47043A8
:1052A000B3F5405FF9D812E08B4B1B6800221A70EF
:1052B000884B4FF08052DA628AB242F080525A63D1
:1052C0001A46D36A03F47043B3F5405FF9D8804BB4
:1052D0001B781A045BB142F000427E4B5A631A46B7
:1052E000D36A03F47043B3F5405FF9D80FE07A4B0B
:1052F0001B6800221A70774B4FF08051D9625A63B5
:105300001A46D36A03F47043B3F5405FF9D8714A83
:10531000D36A13F0F00FFBD06E4B9B6B6D4AD36AD0
:1053200013F0F00FFBD06B4B9B6B6A4AD36A13F000
:10533000F00FFBD0674B9B6B654B1B781A045BB17E
:1053400042F01042634B5A631A46D36A03F4704327
:10535000B3F5405FF9D80FE05F4B1B6800221A706D
:105360005C4B4FF08052DA625A631A46D36A03F4F8
:105370007043B3F5405FF9D8554B1B781A045BB105
:1053800042F01042534B5A631A46D36A03F47043F7
:10539000B3F5405FF9D80FE04F4B1B6800221A703D
:1053A0004C4B4FF08052DA625A631A46D36A03F4C8
:1053B0007043B3F5405FF9D8454B1B781A045BB1D5
:1053C00042F01042434B5A631A46D36A03F47043C7
:1053D000B3F5405FF9D80FE03F4B1B6800221A700D
:1053E0003C4B4FF08052DA625A631A46D36A03F498
:1053F0007043B3F5405FF9D8354B1B781A045BB1A5
:1054000042F01042334B5A631A46D36A03F4704396
:10541000B3F5405FF9D80FE02F4B1B6800221A70DC
:105420002C4B4FF08052DA625A631A46D36A03F467
:105430007043B3F5405FF9D8019F3A1DA36A002B72
:1054400040F0FE81022D6FD0032D00F01881012D58
:1054500040F09C8307F1080100221E4B1F481C4DA1
:10546000DFF874E094464FF080564FF0C0594FF08B
:105470000108DF6A17F0F00FFBD09F6BBFB24FEA55
:10548000272A30F81AA021F804ACFFB230F81770C0
:1054900021F8027C752A23DC2F784FEA074A4FB1A6
:1054A0004AF010475F63DF6A07F47047B7F5405F63
:1054B000F9D834E0DEF8007087F800C0DE625E6381
:1054C000DF6A07F47047B7F5405FF9D827E000BFFF
:1054D00008E1FF1F00C0024004E1FF1F30ED0000A3
:1054E000772A1CDC2F784FEA074A4FB14AF08057E1
:1054F0005F63DF6A07F47047B7F5405FF9D80EE0E5
:10550000DEF8007087F800C0DE62C3F83490DF6A0E
:1055100017F0805FFBD0DEF8007087F80080023261
:105520000431802AA5D12EE3A08D0021C04BC14DAE
:10553000C14EDFF808C388464FF0805EDF6A17F07F
:10554000F00FFBD09F6BBFB24FEA272935F819A0A7
:10555000FFB235F817900FFA8AFB17460BFA80F066
:1055600040101080A2F802A00FFA89FA0BEB0A0093
:1055700040109080A2F80690D86A10F0F00FFBD08F
:10558000986B80B24FEA202935F819B0C0B235F8CF
:1055900010000FFA8BF9CA444FEA6A0AA7F808A06C
:1055A000A7F80AB009FA80F94FEA6909A7F80C9040
:1055B000F8816F2900F3FC8237784FEA07494FB131
:1055C00049F010475F63DF6A07F47047B7F5405F43
:1055D000F9D8F1E2DCF8007087F80080C3F82CE01D
:1055E000C3F834E0DF6A07F47047B7F5405FF9D8D5
:1055F000E2E237784FEA07494FB149F010475F635D
:10560000DF6A07F47047B7F5405FF9D82FE0DCF8A0
:10561000007087F80080C3F82CE0C3F834E0DF6A3C
:1056200007F47047B7F5405FF9D820E037784FEAC4
:1056300007494FB149F080575F63DF6A07F470474D
:10564000B7F5405FF9D812E0DCF8007087F8008009
:10565000C3F82CE04FF0C0575F63DF6A17F0805F3C
:10566000FBD04FF00107DCF8009089F8007008319A
:10567000103280297FF462AFA085402686E2A68D95
:1056800000256B4BDFF8ACE1DFF8ACB1DFF8AC9193
:10569000A046D96A11F0F00FFBD0996B89B20812BD
:1056A0003EF81000C9B23EF8117036B204B211468D
:1056B00006EB460CA4444FEAAC0CA2F800C006EB83
:1056C000040C4FEA6C0CA2F802C004EB440C6644D4
:1056D000B6109680D08038B20CEB0006B61016815A
:1056E00026187610568100EB400C6444A410948177
:1056F000D781DC6A14F0F00FFBD09E6BB6B2341287
:105700003EF81440F6B23EF816605F2D00F3588262
:105710009BF800704FEA074A4FB14AF010475F63A9
:10572000DF6A07F47047B7F5405FF9D84CE24FF0F5
:105730000007D9F800A08AF800704FF08057DF62A8
:105740005F63DF6A07F47047B7F5405FF9D83BE263
:105750009BF800704FEA074A4FB14AF010475F6369
:10576000DF6A07F47047B7F5405FF9D835E04FF0CE
:105770000007D9F800A08AF800704FF08057DF6268
:105780005F63DF6A07F47047B7F5405FF9D824E03C
:105790009BF800704FEA074A4FB14AF080575F63A9
:1057A000DF6A07F47047B7F5405FF9D815E04FF0AE
:1057B0000007D9F800A08AF800704FF08057DF6228
:1057C0004FF0C0575F63DF6A17F0805FFBD04FF088
:1057D0000107D9F800A08AF8007027B2BC444FEA4C
:1057E000AC0CA1F810C000EB070C4FEA6C0CA1F850
:1057F00012C007EB470C604480108882CC8230B224
:105800000CEB0004A4100C833C1864104C8300EBD8
:105810004000384480108883CE8310352032802D9C
:105820007FF437AF4446A8F82C602026AEE100BFD5
:1058300000C0024030ED000008E1FF1F04E1FF1F3F
:10584000022D55D0032D00F0E380012D40F094810E
:105850000021B84BB848B94F8E464FF080554FF0F5
:10586000C0584FF0010CDE6A16F0F00FFBD09E6BB3
:1058700076BA22F8026B7A2919DC06784FEA0649D3
:105880004EB149F010465E63DE6A06F47046B6F526
:10589000405FF9D828E03E6886F800E0DD625D638D
:1058A000DE6A06F47046B6F5405FF9D81CE07B2945
:1058B0001ADC06784FEA06494EB149F080565E631D
:1058C000DE6A06F47046B6F5405FF9D80CE03E6833
:1058D00086F800E0DD62C3F83480DE6A16F0805F8F
:1058E000FBD03E6886F800C001318029BBD14CE175
:1058F000B4F82CB000218F4B8F4EDFF840C28846A1
:105900004FF0805E4FF00109D86A10F0F00FFBD025
:10591000986B90FA90FA1FFA8AFAD86A10F0F00F92
:10592000FBD09D6B6DBAAFB20FFA8AF000FA8BFB19
:105930004FEA6B0BA2F800B0A2F802A000FA87F0C1
:1059400040109080D780772900F3428130784FEA69
:10595000004A48B14AF010405863D86A00F47040D9
:10596000B0F5405FF9D837E1DCF8000080F800803E
:10597000C3F82CE0C3F834E0D86A00F47040B0F506
:10598000405FF9D828E130784FEA004A48B14AF040
:1059900010405863D86A00F47040B0F5405FF9D801
:1059A0002DE0DCF8000080F80080C3F82CE0C3F89C
:1059B00034E0D86A00F47040B0F5405FF9D81EE0DA
:1059C00030784FEA004A48B14AF080505863D86AAC
:1059D00000F47040B0F5405FF9D810E0DCF800004A
:1059E00080F80080C3F82CE04FF0C0505863D86AAC
:1059F00010F0805FFBD0DCF8000080F800900431EC
:105A00000832802901D0BB467EE7A5854026BDE04F
:105A1000B4F82C900021474B474EDFF820C1884650
:105A20004FF0805ED86A10F0F00FFBD0986B90FAC0
:105A300090FB1FFA8BFBD86A10F0F00FFBD09D6B28
:105A40006DBAAFB20FFA89F90FFA8BF009EB490A78
:105A500082444FEAAA0AA2F800A009EB000A4FEA22
:105A60006A0AA2F802A000EB400AD1444FEAA90951
:105A7000A2F80490A2F806B00FFA87F9CA444FEAD8
:105A8000AA0AA2F808A000EB090A4FEA6A0AA2F8DB
:105A90000AA009EB4909484480109081D7816F29F9
:105AA00000F39E8030784FEA004948B149F0104039
:105AB0005863D86A00F47040B0F5405FF9D893E0BD
:105AC000DCF8000080F80080C3F82CE0C3F834E074
:105AD000D86A00F47040B0F5405FF9D884E03078BF
